:020000040800F2
:100000007005002045010008732400084B220008F9
:1000100071240008910A0008192C00080000000053
:100020000000000000000000000000002B28000875
:10003000CB0A000800000000292800082D2800082D
:100040005F0100085F0100085F0100085F01000810
:100050005F0100085F0100085F0100085F01000800
:100060005F0100085F0100085F010008950A0008B1
:100070005F0100085F0100085F0100085F010008E0
:100080005F0100085F010008550900085F010008D2
:100090005F0100085F0100085F0100085F010008C0
:1000A0005F0100085F0100085F0100085F010008B0
:1000B0005F0100085F0100085F0100085F010008A0
:1000C0005F0100085F0100085F0100085F01000890
:1000D0005F010008012C00085F0100080D2C0008DA
:1000E0005F0100085F0100085F0100085F01000870
:1000F0005F0100085F0100085F0100085F01000860
:100100005F0100085F0100085F0100085F0100084F
:100110005F0100085F0100085F0100085F0100083F
:100120005F0100085F0100085F0100085F0100082F
:10013000DFF80CD000F07EFB0048004729350008AE
:10014000700500200648804706480047FEE7FEE7A6
:10015000FEE7FEE7FEE7FEE7FEE7FEE7FEE7FEE777
:100160009528000831010008202A04DB203A21FAF2
:1001700002F00021704721FA02F3D040C2F12002C0
:100180009140084319467047D2B201E000F8012BB4
:10019000491EFBD270470022F6E710B513460A4607
:1001A00004461946FFF7F0FF204610BDF0B480EA80
:1001B0000102D40F4200B2EB410F02D202460846C0
:1001C00011464A0042D0C30DDDB2C1F3C752AD1A89
:1001D000202D35DAC1F3160141F4000204B1524278
:1001E000C5F1200602FA06F12A411044B3EBD05FB4
:1001F00023D0C4B1012DA0EBC35009DCF0BC4FF0FB
:10020000004202EAC352DBB200F5000000F02BB955
:10021000400000F1807000EBC350A0F1807040EA14
:10022000D170490009E0490841EAC071A0EBC35010
:1002300000F50000400800EBC350F0BC00F00AB924
:100240006142012202EB4101001BF6E7F0BC70475E
:1002500081F00041AAE780F00040A7E780EA0102B0
:1002600010B502F00043400022D04A001FD0010E1A
:1002700001EB1261C0F35600C2F3560240F40000D5
:1002800042F40002A0FB022000047F39140400D0D5
:10029000401C50EA124001D44000491EC2B20C0674
:1002A00004EBD010401C4008802A02D003E000205C
:1002B00010BD20F00100002900DA0020184310BD15
:1002C00030B480EA010202F0004530F0004221F033
:1002D000004013D090B1C30DD40DC2F31601C0F38A
:1002E0001600E41A41F4000140F400027D3491420A
:1002F00001D3641C00E04900002C02DA30BC00206D
:1003000070474FF400000023914201D3891A034340
:1003100040084FEA4101F7D151B1914202D14FF06B
:10032000004105E002D24FF0010101E06FF0010150
:1003300003EBC450284430BC00F08CB89623002254
:10034000114600F090B800F0004220F00040C10DCE
:10035000C0F3160040F400007F2901DA0020704746
:10036000962903DCC1F19601C84001E09639884026
:10037000002AF4D04042704720F00040C10DC0F385
:10038000160040F400007F2901DA0020704796290A
:1003900003DCC1F19601C840704796398840704728
:1003A00000F0004230F000400AD0C10D01F560714C
:1003B000C0F3160042EA0151C208400711437047DA
:1003C00000200146704730B50B4601460020202230
:1003D000012409E021FA02F59D4205D303FA02F552
:1003E000491B04FA02F52844151EA2F10102F1DCB2
:1003F00030BD2DE9F05F0546002092469B468846B9
:100400000646814640241BE0284641464746224690
:10041000FFF7AAFE53465A46C01A914110D311461F
:100420001846224600F018FA2D1A67EB01084F46CD
:1004300022460120002100F00FFA17EB00094E417F
:10044000201EA4F10104DFDC484631462A4643461B
:10045000BDE8F09F0029A8BF7047401C490008BFB5
:1004600020F00100704710B4B0FA80FC00FA0CF0E4
:1004700050EA010404BF10BC704749B1CCF120041C
:1004800021FA04F411FA0CF118BF012121430843A9
:10049000A3EB0C01CB1D4FEA00614FEA102042BFD5
:1004A000002010BC704700EBC35010440029A4BFCB
:1004B00010BC7047401C490008BF20F0010010BC70
:1004C00070472DE9FE4F804681EA0300C00F0C46BD
:1004D000009021F0004123F00045B8EB0200A94153
:1004E00005D24046214690461C460B46024623F064
:1004F0000040104347D0270DC7F30A00C3F30A5149
:100500000290401A019040286BDAC3F3130040F4C4
:10051000801B0098924620B10023D2EB030A63EBC4
:100520000B0B01985946C0F14002504600F094F977
:1005300006460D4650465946019A00F09CF910EBCC
:1005400008006141002487EA115284EAE7731A43E4
:1005500040D0009A62B3019A012A4FEA075215DC93
:10056000001B61EB02014FF0004202EA0752CDE9A5
:100570000042001C41F5801132462B4600F09CF9E8
:1005800003B0BDE8F08F40462146F9E7001B61EB60
:100590000201001C41F5801300185B412018A2F5F0
:1005A000001747EB030140EAD570B6196D4111E021
:1005B0006D084FEA360645EAC0754FEA0752001B40
:1005C00061EB0201001C41F5801149084FEA30003F
:1005D0000019514132462B4603B0BDE8F04F00F000
:1005E0005CB90098012240000023D0EB020263EBCB
:1005F000E073009821464FEAE074B8EB000061EB2D
:100600000401E9E783F000435BE781F0004158E72C
:100610002DE9FE4F81EA030404F0004421F000417B
:1006200000944FF0000B23F0004350EA01045ED029
:1006300052EA03045BD0C3F30A54C1F30A552C44B5
:10064000A4F2F3340194A0FB0254C1F3130141F46A
:100650008011C3F3130343F4801301FB024400FB36
:10066000034E840A970A44EA815447EA8357A4FB5D
:10067000076802958D0A05FB07854FEA932C04FB5A
:100680000C542705029D4FEA065847EA1637B5EB8A
:1006900008056EEB070C870E920E47EA811742EAB7
:1006A0008312A7FB0201B6EB0B0164EB00042B0DD8
:1006B00043EA0C335E1844EB1C50DA465146E7FB24
:1006C0000201C5F313044FEA0B3343EA14534FEA14
:1006D0000432019C43EA0603A4F10C040294009C3A
:1006E000CDE900B400F0E8F803B0BDE8F08F0020D9
:1006F0000146F9E72DE9F04D81EA030404F0004BCF
:1007000021F0004514464FF0000A23F0004150EA62
:10071000050220D054EA01021DD0C5F30A57024653
:10072000C5F31303C1F31300C1F30A5640F4801557
:1007300043F48013A7EB0608101BD64608F2FD38D9
:1007400073EB050002D308F1010801E092185B4148
:10075000B8F1000F03DA00200146BDE8F08D00205B
:100760004FF48011064684460EE0171B73EB050715
:1007700005D3121B63EB050306434CEA010C490841
:100780004FEA300092185B4150EA0107EDD152EA7E
:10079000030012D082EA040083EA0501084305D071
:1007A000101BAB4106D20122002306E000224FF0CD
:1007B000004302E06FF0010253101AEB06004CEB0D
:1007C000085110EB0A0041EB0B01BDE8F04D00F0C1
:1007D00064B8C1F30A52C1F3130140F2FF3341F48C
:1007E00080119A4202DA00200146704740F23343FA
:1007F0009A42A2F2334202DC5242FFF7B5BC00F04B
:100800002BB8000030B5041E71F1000404DB4FF07A
:100810000044404264EB0101141E73F1000405DB47
:100820001C464FF00043524263EB0403994208BF59
:10083000904230BD064C074D06E0E06840F00103F1
:1008400094E8070098471034AC42F6D3FFF774FCE5
:10085000D03D0008F03D0008202A04DB203A00FAD1
:1008600002F1002070479140C2F1200320FA03F307
:10087000194390407047202A06DBCB17203A41FAF3
:1008800002F043EAE07306E041FA02F3D040C2F11D
:100890002002914008431946704710B5141E73F1A9
:1008A000000408DA401C41F1000192185B411A4330
:1008B00001D120F0010010BD2DE9F04D92469B467C
:1008C00011B1B1FA81F202E0B0FA80F22032904622
:1008D000FFF7C2FF04460F4640EA0A0041EA0B0157
:1008E00053465A46084313D0114653EA010019D023
:1008F000C8F140025046FFF737FC05460E46504609
:1009000059464246FFF7A8FF084305D0012004E0FE
:1009100020463946BDE8F08D0020054346EAE076E2
:100920002C4337430A986305E40AA0EB0800002231
:10093000FD0A44EA47540A3002D500200146E9E79F
:10094000010510196941DDE9084500196941BDE853
:10095000F04DA2E7014800F097B900003C000020EC
:1009600070B5044600688168C943C9071CD1816815
:1009700021F00101816000F0DFFE05460FE000BFBD
:1009800000F0DAFE401B022809D9A06A40F01000EE
:10099000A062E06A40F00100E062012070BD2068C2
:1009A0008068C043C007EBD0002070BD10B5014681
:1009B000406A826A12F0500F05D0006A026BBDE8EF
:1009C000104008461047816A41F400718162016855
:1009D0008968C1F3424107290CD1C16851B9816AC4
:1009E00021F480718162816AC90403D4816A41F073
:1009F0000101816200F01CF910BD10B5406A816AE6
:100A000041F040018162C16A41F00401C16200F01D
:100A10003AF910BD10B5406A00F034F910BD00007D
:100A2000F8B500260446009600688168C943C907E6
:100A300028D0816841F001018160134813490068A2
:100A4000B0FBF1F000E0401E00900028FBD100F068
:100A500073FE054611E000BF00F06EFE401B022849
:100A60000BD9A06A40F01000A062E06A40F00100DB
:100A7000E06284F824600120F8BD20688068C043EB
:100A8000C007E9D10020F8BD1000002040420F004F
:100A9000FEE70000014800F0A9BB00006C00002048
:100AA00030B590F840500124AC40C56B6C600468D0
:100AB00063604368102B036803D099600068C260CC
:100AC00030BD9A600068C16030BD7047014801F0D8
:100AD0003FBA0000B00000207047704730B590F872
:100AE0002420012A1ED0012280F824208A68012AAD
:100AF0000268536818D023F040035360D1E9002303
:100B00001A4303685C680A4D2C4022435A6003680C
:100B1000CA685A62026809699162002180F824104B
:100B2000084630BD022030BD43F04003E5E7000039
:100B3000E0FD3FFFF8B50024009490F824202546FE
:100B4000012A12D0012280F824204A681F23072A94
:100B50000DD20668776B521E02EB820293409F43D0
:100B60000B6893401F43776319E00220F8BD0668C5
:100B70000D2A0AD2376BD21F02EB820293409F43A9
:100B80000B6893401F43376309E0F76A0D3A02EBA5
:100B9000820293409F430B6893401F43F7620A68A9
:100BA000072306680A2A0AD3F7680A3A02EB4202C8
:100BB00093409F438B6893401F43F76008E0376979
:100BC00002EB420293409F438B6893401F4337617F
:100BD0000A68102A01D0112A20D1124B02689A42C9
:100BE00017D193681B0219D4936843F400039360F0
:100BF0000968102912D10C490C4A0968B1FBF2F1BD
:100C000001EB8101490000E0491E00910029FBD160
:100C100004E0816A41F020018162012480F82450BF
:100C20002046F8BD002401401000002040420F0083
:100C3000114930B48878401CC3B210488B70A0F1C1
:100C40000C0204681588132BADB22C4404609588FF
:100C50004468ADB22C4444601289846892B2224444
:100C6000826007D9012008700020887030BC0448D9
:100C700000F0E6B930BC70470000002030000020D2
:100C80003C0000207047704710B50446006841687A
:100C9000890626D50168890723D5A16AC90603D428
:100CA000A16A41F40071A1628168C1F34241072940
:100CB00010D1E16871B9416821F020014160A06A5A
:100CC00020F48070A062A06AC00403D4A06A40F03F
:100CD0000100A0622046FFF7ABFF21686FF0120011
:100CE00008602068416809062ED5016849072BD5A0
:100CF000A16AC90603D4A16A41F40051A1628168C6
:100D0000C1F30231072909D04168490515D481682A
:100D1000C1F34241072910D1E16871B9416821F05E
:100D200080014160A06A20F48050A062A06AC005E2
:100D300003D4A06A40F00100A0622046FFF7CDFE78
:100D400021686FF00C0008602068416849060DD5E5
:100D50000068C0070AD0A06A40F48030A062204634
:100D600000F096F821686FF00100086010BD0000E7
:100D70002DE9F04104004FF000057FD0A06A002665
:100D800028B9E66284F82460204600F083F8204603
:100D9000FFF7E6FDA16AC90600D420B1A06A40F0C1
:100DA0001000A0626AE0A16A21F4885141F00201BA
:100DB000A162334923688B42E16904D1B1F5402F28
:100DC00001D14FF40021E7684FF4807C41EA4702EB
:100DD00061680A43A168614508D0012906D0002155
:100DE000D4F814E0BEF1010F02D00AE06146F7E743
:100DF000C7B1A76A47F02007A762E76A47F0010773
:100E0000E7625F6827F469470F435F60236899686A
:100E10001C4F394011439960A16861450BD00129ED
:100E200009D00CE0DFF860E0A7690EEB47370F430D
:100E300047F40061E5E7218A0D05A5F580152168D5
:100E4000CB6A23F470032B43CB62216889680F4B74
:100E50001940914208D1E662A16A21F0020141F0F5
:100E60000101A162BDE8F081A06A20F0020040F01B
:100E70001000A062E06A40F00100E0620120F1E7AA
:100E8000003C0140FDF7E1FF00E0FFFFFE0E1FFF09
:100E90007047000070B586B00025064600950195A4
:100EA0000295039500681E49884236D11D4988691C
:100EB00040F400708861886900F4007004908869CB
:100EC00040F0040088618869694600F004000490DD
:100ED0000720009003200190134800F033FB144CCE
:100EE0001248C4E900058020C4E902508000206156
:100EF000800060612020C4E90605204600F09AFACF
:100F000008B1FFF7E9FD3462002211461220666243
:100F100000F07CFC122000F06DFC06B070BD0000FB
:100F20000024014000100240000801400800024077
:100F30006C0000202DE9F047894604463B490068D3
:100F40003B4F0E1D9046884201D0B84207D1306811
:100F500010F4702F03D001252846BDE8F08794F8DF
:100F6000240001280CD0012084F824002046FFF73B
:100F700057FD05004FF0000004D084F82400EBE793
:100F80000220EAE7A16A40F60162914341F48071D0
:100F9000A1622168B94218D1326812F4702F14D0BE
:100FA000A16A41F48011A1623168490505D5A16AA1
:100FB00021F4005141F48051A162A16AC9040AD50B
:100FC000E16A21F00601E16206E0A26A22F48012E1
:100FD000A2624968E9E7E06284F82400216A1548C2
:100FE0008862216A1448C862216A1448086321682B
:100FF0006FF0020008602068816841F480718160B0
:10100000216843464A464C31206A00F051FA206874
:101010008168C1F342410729816803D041F48011FE
:10102000816099E741F4A001FAE700000024014043
:1010300000280140AD090008150A0008FB09000856
:1010400010B5044690F82400012807D0012084F848
:1010500024002046FFF784FC10B10EE0022010BDF2
:101060002068816821F480718160206A00F00EF8A8
:10107000A16A30B141F04001A162002184F824103E
:1010800010BD21F4885141F00101F5E701680A68BB
:1010900022F00E020A6001680A6822F001020A606A
:1010A00090F84020C36B012101FA02F25A6080F8E7
:1010B0002110002180F82010084670472DE9F05FCC
:1010C00090F821100024022903D004218163012417
:1010D00085E001680A6822F00E020A6001680A6869
:1010E00022F001020A603F4E3E4FB215DFF8F4C015
:1010F000DFF8F090DFF8ECA0DFF8E8B0DFF8E4E02C
:101100000168783F13011502ACF1640CA9F1500994
:10111000AAF13C0AABF1280BAEF1140E4FF4801883
:10112000B14227D9B9420ED0614512D049451DD0F0
:10113000514518D0594518D0714501D1424615E0A6
:10114000294EB14201D1012210E0274E1436B1429E
:1011500001D110220AE0244E2836B14206D0224A9C
:101160003C32914201D11A4600E02A461E49091F2D
:101170000A602BE0B94213D0614517D0494522D00F
:1011800051451DD059451DD0714501D142461AE047
:10119000B14202D14FF0807215E0134EB14201D13D
:1011A000012210E0104E1436B14201D110220AE0A3
:1011B0000D4E2836B14206D00B4A3C32914201D145
:1011C0001A4600E02A46074980394A60012180F822
:1011D0002110002180F82010416B01B18847204682
:1011E000BDE8F09F80000240080402402DE9F05F56
:1011F000C16B0A6801680B68046C4FF0040808FAB8
:1012000004F8844D844E854FDFF814C2DFF8149241
:10121000DFF814A2DFF814B2DFF814E218EA020FC4
:1012200065D05FEA437862D50A68920603D40A68FB
:1012300022F004020A60DFF8F0814FF48062016856
:1012400008F1140813011402414524D9A9420DD014
:10125000B1420FD0B9421AD0614515D0494515D0D9
:10126000514501D1120312E0594501D104220EE08B
:10127000714501D140220AE06D4D1435A94206D0D6
:101280006B4A2832914201D11A4600E02246674952
:10129000091F0A6029E0A94213D0B14215D0B94212
:1012A00020D061451BD049451BD0514502D14FF498
:1012B000800217E0414502D14FF0806212E05945AB
:1012C00001D104220EE0714501D140220AE0584DBF
:1012D0001435A94206D0564A2832914201D11A4605
:1012E00000E022464B4908394A60C16A71E04FF07C
:1012F000020808FA04F818EA020F70D05FEA83784F
:101300006DD50A68920606D40A6822F00A020A60BD
:10131000012180F82110DFF810814FF4007201687C
:1013200008F1140813011402414524D9A9420DD033
:10133000B1420FD0B9421AD0614515D0494515D0F8
:10134000514501D1120312E0594501D102220EE0AC
:10135000714501D120220AE0354D1435A94206D04D
:10136000334A2832914201D11A4600E022462F49E1
:10137000091F0A6029E0A94213D0B14215D0B94231
:1013800020D061451BD049451BD0514502D14FF4B7
:10139000001217E0414502D14FF0007212E05945AA
:1013A00001D102220EE0714501D120220AE0204D38
:1013B0001435A94206D01E4A2832914201D11A465C
:1013C00000E02246134908394A60002180F82010C5
:1013D000816A00291CD0BDE8F05F0847FFE70825B7
:1013E000A540154214D01A0712D50A6822F00E0241
:1013F0000A6090F84020C36B012101FA02F25A60A2
:10140000816380F82110002180F82010016BE0E753
:10141000BDE8F09F080002401C000240300002407E
:1014200044000240580002406C00024008040240A0
:101430001C04024030B560B11A4B026814219A4274
:1014400009D2194B1344B3FBF1F189000164174928
:101450000AE0012030BD134B5B421344B3FBF1F1B2
:10146000890001640F490839C163022180F8211005
:10147000136843F6F0718B43F0E901142143D0E97E
:1014800002452C4321430469214344692143846973
:101490002143194311600021416301224277017702
:1014A000084630BD08040240F8FFFDBF00000240BE
:1014B00070B5044690F82000002501280CD00120CA
:1014C00084F8200094F821600020012E06D084F8D2
:1014D00020000225284670BD022070BD022684F837
:1014E0002160A0632068066826F001060660204699
:1014F000FFF7D6FAE06A00282068016802D041F0C0
:101500000E0106E021F0040101602068016841F04D
:101510000A0101602068016841F001010160D9E71A
:1015200070B5044600F008F90546601C02D0044876
:101530000078044400F000F9401BA042FAD370BDCB
:10154000040000202DE9F84FDFF8B8A100220AF1CD
:10155000040B144601274FF00F090BF1040E00BFD6
:101560000B6807FA04F52B40AB4274D1DFF898C141
:101570004E68A6EB0C0866452BD00DDC032E34D04C
:1015800005DC36B3012E19D0022E2FD11BE0112E0F
:1015900016D0122E2AD119E0B8F5881F19D006DC12
:1015A000B8F5803F15D0B8F5801F1FD111E0B8F510
:1015B000001F0ED0B8F5041F18D10AE0CA6815E064
:1015C000CA68121D12E0CA6808320FE0CA680C32FD
:1015D0000CE08A682AB1012A4FF0080203D0456165
:1015E00004E0042202E0056100E00022FF2B01D8A4
:1015F000064601E000F104064FEA840501D9A5F191
:101600002005D6F800C009FA05F82CEA080C02FA01
:1016100005F54CEA050CC6F800C04D68ED006AD52A
:101620003A4DAE6946F00106AE61AD6924F003069D
:1016300005F001050095364D06EB050CDCF8085069
:10164000A6074FEA167809FA08F6B543314EB042BC
:1016500002D100261AE04EE02F4EB04201D1012601
:1016600014E02E4EB04201D102260FE02C4EB042C3
:1016700001D103260AE02B4EB04201D1042605E039
:10168000294EB04201D1052600E0062606FA08F6EA
:101690002E43CCF808604D68DAF80060ED0355463B
:1016A00001D51E4300E09E432E604D68AD0305D575
:1016B000DBF800601E43CBF8006004E0DBF800506C
:1016C0009D43CBF800504D68DEF80060ED02754692
:1016D00001D51E4300E09E432E604D68AD0205D546
:1016E000084D0C352E681E432E6004E0054E0C3666
:1016F00035689D433560641C102CFFF431AFBDE8A4
:10170000F88F00000004014000001110001002409A
:101710000000014000080140000C014000100140A1
:101720000014014000180140001C01400AB1016191
:1017300070470904FBE7000001488068704700001B
:1017400004000020024881680278114481607047DB
:1017500004000020074810B5016841F01001016045
:10176000032000F073F8002000F006F800F024F8E1
:10177000002010BD0020024070B50D4D04464FF40E
:101780007A712878B1FBF0F00A490968B1FBF0F0F2
:1017900000F072FB48B9102C07D200222146501EDF
:1017A00000F034F800206C6070BD012070BD0000B6
:1017B00004000020100000200C4808B5816941F0A9
:1017C00001018161816901F001010091C16941F06C
:1017D0008051C161C06900F08050009004484168A8
:1017E00021F0E06141F08061416008BD00100240DD
:1017F0000000014000F01F020121914040098000DB
:1018000000F1E020C0F8001170470000F0B40E4B6A
:101810001B680C46C3F30223C3F10705042D00D94E
:101820000425191D072901D2002300E0DB1E012633
:1018300006FA05F1491E214099409E40761E164049
:101840003143F0BC00F016BE0CED00E0064900F09C
:10185000070208684FF6FF03184040EA0220034AD7
:1018600010430860704700000CED00E00000FA052E
:101870002DE9F84305460078354CC00754D0E0699F
:101880000026C00008D4E06940F08050E061E069C3
:10189000012600F0805000902E480168C90512D43E
:1018A0000168804641F480710160FFF745FF0746FB
:1018B00005E000BFFFF740FFC01B642823D8D8F81D
:1018C0000000C005F6D5206A10F4407021D0A98828
:1018D00001F4407181421CD0206A1F49012220F48A
:1018E00040700A6000220A602062C00711D0FFF732
:1018F00023FF074641F2883808E000BFFFF71CFFCE
:10190000C11B414502D90320BDE8F883206A800746
:10191000F4D5206A696820F44070084320621EB143
:10192000E06920F08050E0612878800705D5606884
:10193000A96820F44040084360602878C00605D5B7
:101940006068696920F48000084360600020DBE77C
:101950000010024000700040400442422DE9F04770
:10196000DFF8548105460E46D8F8000000F0070065
:10197000B0420CD2D8F8001021F007013143C8F86A
:101980000010D8F8000000F00700B0426FD12868BE
:101990004A4C810712D5400703D5606840F4E060E7
:1019A00060602878000703D5606840F4605060608C
:1019B0006068A96820F0F000084360602878C007DC
:1019C00044D06868012816D02168022816D08907FB
:1019D00000294CDA616821F0030101436160FFF7DF
:1019E000ABFE6968074641F2883001290ED0022912
:1019F000814618D026E021688903E9E78901E7E7F5
:101A0000FFF79AFEC11B494501D918E0814660687D
:101A1000C0F381000128F3D118E000BFFFF78CFE6E
:101A2000C11B49450BD86068C0F381000228F5D17D
:101A30000CE000BFFFF780FEC11B494502D903201F
:101A4000BDE8F087606810F00C0FF3D1D8F80010F3
:101A5000404601F00701B1420BD9016821F00701AE
:101A600031430160006800F00700B04201D001205E
:101A7000E6E72878400705D56068E96820F4E0606B
:101A8000084360602878000706D56068296920F45B
:101A9000605040EAC100606000F036F86168084AB2
:101AA000C1F30311515CC840064908600020FFF7EC
:101AB00063FE0020C4E70000002002400010024046
:101AC000B83D000810000020044805490068496836
:101AD000044AC1F30221515CC84070471000002045
:101AE00000100240C83D00080448054900684968E4
:101AF000044AC1F3C221515CC84070471000002065
:101B000000100240C83D000812A185B00FC98DE841
:101B10000F0014A0144A006804905168134801F0A3
:101B20000C03042B10D0082B0ED1C1F38343C9033F
:101B30001DF803000AD5516804AAC1F34041515C65
:101B40000A4A5043B0FBF1F005B0704708494843DA
:101B5000FAE7000002030405060708090A0B0C0D4A
:101B60000E0F1010010200000010024000127A0057
:101B700000093D002DE9F84F04460078B94DC00733
:101B800048D06868C0F38100012807D06868C0F3B6
:101B90008100022809D16868C00306D5286880033F
:101BA00038D5606800286FD034E06068B0F5803FB9
:101BB0000BD010B1B0F5A02F11D0286820F48030E0
:101BC0002860286820F4802002E0286840F48030F3
:101BD0002860606888B1FFF7AFFD064609E0286815
:101BE00040F480202860F0E7FFF7A6FD801B642802
:101BF00075D828688003F7D50CE0FFF79DFD0646F1
:101C000005E000BFFFF798FD801B6428F0D8286826
:101C10008003F7D42078944E80074FF001094FF0ED
:101C200000083BD5686810F00C0F07D06868C0F357
:101C30008100022809D16868C00306D4286880079B
:101C400014D5206901281FD110E02069B0B1C6F871
:101C50000090FFF771FD074605E000BFFFF76CFD40
:101C6000C01B0228C4D828688007F7D52868616996
:101C700020F0F80040EAC10028600FE0C6F80080BC
:101C8000FFF75AFD074606E0E9E000BFFFF754FD05
:101C9000C01B022823D828688007F7D420780007C3
:101CA0002CD57248A169D9B1C0F80090FFF744FD66
:101CB000074604E0FFF740FDC01B02280FD8686A02
:101CC0008007F7D56A484FF4FA510068B0FBF1F08D
:101CD000009000BF0098411E0091FAD20EE080E013
:101CE000C0F80080FFF728FD074604E0FFF724FD59
:101CF000C01B022875D8686A8007F7D4207840078F
:101D000060D5E8690027C00008D4E86940F0805039
:101D1000E861E869012700F08050009055480168AB
:101D2000C90513D40168834641F480710160FFF74F
:101D300003FD824606E000BFFFF7FEFCA0EB0A00B1
:101D400064284ED8DBF80000C005F5D5E06801280E
:101D50000AD008B1052813D0286A20F001002862B3
:101D6000286A20F0040002E0286A40F0010028629E
:101D7000E06841F2883B98B1FFF7DEFC82460BE059
:101D8000286A40F004002862EEE700BFFFF7D4FCA9
:101D9000A0EB0A0159455AD8286A8007F6D50CE00D
:101DA000FFF7CAFC824605E0FFF7C6FCA0EB0A017C
:101DB00059454CD8286A8007F6D41FB1E86920F04D
:101DC0008050E861E06988B36968C1F38101022944
:101DD00045D00228C6F8608004D0FFF7ADFC044669
:101DE00038E034E0FFF7A8FC074604E0FFF7A4FC66
:101DF000C01B02282BD828688001F7D4206AB0F5D0
:101E0000803F05D16868A16820F40030084368600D
:101E1000D4E908010843696821F474110843686033
:101E2000C6F86090FFF788FC044606E015E000BFA6
:101E3000FFF782FC001B022809D828688001F7D52B
:101E40000BE000BFFFF778FC001B022802D903203B
:101E5000BDE8F88F28688001F4D40020F8E701205D
:101E6000F6E70000001002400000424280044242B7
:101E7000100000200070004010B5401EB0F1807FBF
:101E800001D3012010BD4FF0E02460610F216017E5
:101E900000F0F0FA0020A06107202061002010BDB2
:101EA00030B590F83C20012A20D0012280F83C2057
:101EB000022380F83D3003685C6824F070045C60A5
:101EC00003685C680D682C435C6003689C6824F0C0
:101ED00080049C6003689C6849680C439C6080F89F
:101EE0003D20002180F83C10084630BD022030BD66
:101EF00010B5040003D094F83D0010B107E00120B4
:101F000010BD002084F83C00204600F00DF80220AF
:101F100084F83D00211D206800F0E0FC012084F8D9
:101F20003D00002010BD000008B500680649884249
:101F300008D10648C16941F01001C161C06900F0D3
:101F40001000009008BD000000100040001002408A
:101F50000168CA6842F00102CA600068016841F085
:101F600001010160002070477047000070B50268F1
:101F700004461068D168536910F00F0F50D003F079
:101F8000010501F4907635435DD0C20705D0CA053E
:101F900003D5E26B42F00102E263420705D5DA079E
:101FA00003D0E26B42F00202E263820705D5DA0752
:101FB00003D0E26B42F00402E263020705D5DA07C0
:101FC00003D0E26B42F00802E263E26B002A33D0F6
:101FD000800604D5880602D5204600F0DBFC206888
:101FE0004069E16BC0F38010090700D428B3204694
:101FF00000F0C2FC2068416949061AD5416921F008
:1020000040014161606BA0B11B494163606BFFF708
:1020100055F8002810D0606B416BBDE87040084750
:10202000830610D58B060ED52046BDE8704000F023
:10203000B1BC2046FFF798FF70BD2046FFF794FF24
:102040000020E06370BD030606D50B0604D52046CC
:10205000BDE8704000F0A2BD4006F3D54806F1D5BA
:10206000D168204621F04001D160202184F8391048
:1020700000F0EAF870BD00006929000870B504009E
:1020800004D094F83900002510B106E0012070BD9D
:1020900084F83850204600F023F8242084F83900D2
:1020A0002068C16821F40051C160204600F0BEFCE8
:1020B0002068016921F4904101612068416921F0A3
:1020C0002A0141612068C16841F40051C160E563A3
:1020D000202084F8390084F83A00002070BD000008
:1020E00070B586B0002400940194029403940368B0
:1020F0002E482D4E022103220515B34226D18369B5
:1021000043F480438361836903F4804304938369C8
:1021100043F0040383618069254E00F004000490BD
:102120000802CDE90001039269463046FFF70AFA3A
:10213000CDE90054694630460294FFF703FA0022C5
:1021400011462520FFF762FB252028E0194EB342F7
:1021500027D1C36943F48023C361C36903F4802397
:102160000493836943F0080383618069CDE90051DA
:1021700000F00800CDE903200F4D69462846FFF71F
:10218000E1F9E814CDE90004694628460294FFF716
:10219000D9F9002211462720FFF738FB2720FFF747
:1021A00029FB06B070BD000000380140001002405D
:1021B0000008014000480040000C014090F83A300F
:1021C000202B22D1F9B1F2B190F83830012B1CD07C
:1021D00081628285C2850021C163222280F83A2073
:1021E00080F838100168CA6842F48072CA600168D9
:1021F0004A6942F001024A610068C16841F0200169
:10220000C160002070470120704702207047000025
:1022100000680949884207D1084841780848AA2936
:1022200008D04FF40021016004490122491C0548EF
:10223000FFF7C4BF0821F6E7004800400000002077
:1022400010080140300100207047FEE770B58AB0E9
:10225000182103A8FDF79FFF002423480094019450
:10226000204902940160891501254461C0E90215E5
:10227000032606614FF460214460C161FEF778FDDA
:1022800008B1FEF729FC4FF40000039040F6D77028
:10229000CDE9060403A905951348FEF71FFC08B114
:1022A000FEF71AFCCDE9004569460F480294FEF797
:1022B00041FC08B1FEF710FC0224CDE90054694648
:1022C0000948FEF737FC08B1FEF706FCCDE90046E9
:1022D00069460548FEF72EFC002801D0FEF7FCFBFE
:1022E0000AB070BD002401403C000020094808B538
:1022F000416941F0010141614069002200F00100A3
:10230000009011460B20FFF781FABDE808400B2032
:10231000FFF770BA00100240F0B585B000200090C1
:102320000190029003902148816941F01001816180
:10233000816901F010010491816941F0040181611A
:10234000816901F004010491816941F00801816112
:10235000816901F008010491816941F020018161E6
:102360008069134E00F020000490002208213046BE
:10237000FFF7DCF90F4F0122F8213846FFF7D6F9B5
:1023800001240820CDE90004032569463046CDE943
:102390000245FFF7D7F8F820CDE900046946384632
:1023A000CDE90245FFF7CEF805B0F0BD00100240C0
:1023B00000080140001401401CB500240F4800949F
:1023C0000D49019401604721C0E9011440F2E73151
:1023D000C16080218161FFF78BFD08B1FEF77CFBB6
:1023E0000094694605480194FFF75AFD002801D082
:1023F000FEF772FB1CBD000000100040B000002082
:102400000C4810B50A4901604FF4E13141600021E8
:1024100081600C22C160C0E904128161C161FFF7D3
:102420002DFE002803D0BDE81040FEF755BB10BDBF
:1024300000380140F00000200C4810B50A49016046
:102440004FF4E1314160002181600C22C160C0E99C
:1024500004128161C161FFF711FE002803D0BDE8BD
:102460001040FEF739BB10BD00480040300100208D
:10247000FEE770470907090E002806DA00F00F0092
:1024800000F1E02080F8141D704700F1E02080F892
:102490000014704730B5002404F1B000C0B2002130
:1024A00000F09CF90021022000F098F90021102092
:1024B00000F094F900250121002000F08FF96D1C37
:1024C000EDB2802DF7D3641CE4B2082CE4D330BD08
:1024D00070B5484C102525606420FFF721F82804CA
:1024E00020606420FFF71CF825600021AE2000F07A
:1024F00075F90021022000F071F90021102000F090
:102500006DF90021402000F069F90021812000F0E0
:1025100065F90021CF2000F061F90021A12000F031
:102520005DF90021C82000F059F90021A62000F033
:1025300055F90021A82000F051F900213F2000F0BA
:102540004DF90021812000F049F90021FF2000F021
:1025500045F90021D32000F041F90021084600F0A0
:102560003DF90021D52000F039F90021802000F04C
:1025700035F90021D92000F031F90021F12000F0D7
:102580002DF90021DA2000F029F90021122000F0B5
:1025900025F90021DB2000F021F90021402000F086
:1025A0001DF90021202000F019F90021022000F07F
:1025B00015F900218D2000F011F90021142000F000
:1025C0000DF90021A42000F009F90021A62000F057
:1025D00005F90021AF2000F001F90021AF2000F043
:1025E000FDF8FFF757FFBDE870400021084600F0F6
:1025F00003B800001014014010B50446B031C8B251
:10260000002100F0EBF8102040EA1410002100F047
:10261000E5F804F00F00BDE8104040F00100002193
:1026200000F0DCB82DE9F041203A00240D46804648
:10263000D7B27F2803D900208D1C8046EDB22946F1
:10264000FFF7DAFF0F4E00BF04EB07100121305CEB
:1026500000F0C4F8641CE4B2082CF5D36D1CE9B298
:102660004046FFF7C9FF002404EB07103044012166
:10267000007A00F0B3F8641CE4B2082CF4D3BDE88F
:10268000F0810000C83700082DE9F84F00241D46EE
:102690008B460646174612F1FF4F01D2A04603E0D3
:1026A0004FF0010882F000473846FDF74CFE8246A5
:1026B000FDF744FE3946FDF7CEFD2349FDF7CEFD7B
:1026C000FDF741FE814650460A21B0FBF1F0641C43
:1026D000E4B20028F9D1B8F1000F04D02D225946F8
:1026E0003046FFF79FFF6F0808FB0760C0B2234624
:1026F00052465946009500F029F8444407FB04600F
:10270000C0B22E225946FFF78DFFB9F10A0F00958E
:102710000FD2601C07FB0060C0B2012300225946A3
:1027200000F014F8A41C07FB0460C0B2012300955C
:1027300004E0641C07FB0460C0B202234A46594609
:1027400000F004F8BDE8F88F0000C8422DE9F0471A
:102750008046002608981D4691468A46344647081A
:1027600021E0281B401EC1B20A2000F0E3FFB9FBA4
:10277000F0F00A21B0FBF1F201FB120026B9691E4C
:102780008C4201DA30B101263030C2B207FB04803E
:10279000C0B203E007FB0480C0B220225146FFF71D
:1027A00041FF641CE4B2AC42DBD3BDE8F087F0B576
:1027B00017460E46044600250CE031462046FFF73A
:1027C00031FF0834E4B2782C02D90024B61CF6B2EA
:1027D0006D1CEDB27A5D002AEFD1F0BDF0B5114A63
:1027E000202309B1136002E04FF4001111604FF48F
:1027F000002111604FF480040021802566004027ED
:1028000014605FEA006C01D5156000E01660176087
:102810004006491C000EC9B20829F1D308201060F7
:102820001360F0BD1014014070477047FEF78ABF77
:1028300030B595B028216846FDF7ADFC14210AA8F3
:10284000FDF7A9FC18210FA8FDF7A5FC012108043C
:10285000CDE900100024029402250491CDE907502F
:102860004FF4E01009906846FFF784F90F20CDE996
:102870000A056802CDE90C4002210AA80E94FFF770
:102880006DF84FF4404011900F950FA8FEF7F0FF40
:1028900015B030BD0D48016841F00101016041688B
:1028A0000B4A1140416001680A4A11400160016809
:1028B00021F480210160416821F4FE0141604FF460
:1028C0001F0181600449C003086070470010024086
:1028D0000000FFF8FFFFF6FE08ED00E0F0B502682B
:1028E0001C4B1D4D1D4E1E4F1E4C4FF0804C9842F0
:1028F00009D0A04207D0604505D0A84203D0B0421D
:1029000001D0B84204D122F0700E4A6842EA0E02A9
:10291000984209D0A04207D0604505D0A84203D014
:10292000B04201D0B84203D122F44075CA682A43AC
:1029300022F080054A692A4302608A68C2620A68F6
:102940008262984201D0A04201D10969016301214C
:102950004161F0BD002C014000040040000800402F
:10296000000C00400034014010B5406A0021C185D0
:10297000C184FFF7F9FA10BD0168CA6822F49072A9
:10298000CA6001684A6922F001024A61202180F888
:102990003A10704710B590F83A10222901D0022061
:1029A00010BD8168B1F5805F11D00169002901680F
:1029B0001FD0496801F07F03816A4A1C82620B7054
:1029C000C18D491E0904090CC18518D02BE002698C
:1029D000816A002A0268526805D0D2B20A80816AF0
:1029E000491C8162ECE7C2F308020A80816A891CF3
:1029F000F7E74A68816A4B1C83620A70E0E7016866
:102A0000CA6822F02002CA600168CA6822F4807293
:102A1000CA6001684A6922F001024A61202180F8F7
:102A20003A10FFF7F5FB002010BD00002DE9F04142
:102A3000044600680169E26821F4405111430161D4
:102A40002169A0680843616908432168CA6841F2A6
:102A50000C639A430243CA6020684169A26921F469
:102A60004071114341614C492068642532268842F7
:102A70003CD1FFF739F800EBC00101EB00106168B1
:102A80008900B0FBF1F7FFF72FF800EBC00101EB75
:102A900000106168B0468900B0FBF1F0B0FBF5F0C2
:102AA0006FF01801484307EB800106EB0110B0FB03
:102AB000F5F000F0F006FFF717F800EBC00101EBAE
:102AC000001061688900B0FBF1F0B0FBF5F006EB97
:102AD0000016FFF709F800EBC00101EB0010616878
:102AE0008900B0FBF1F7FEF7FFFF3BE0FEF7ECFFDC
:102AF00000EBC00101EB001061688900B0FBF1F749
:102B0000FEF7E2FF00EBC00101EB00106168B04688
:102B10008900B0FBF1F0B0FBF5F06FF0180148430D
:102B200007EB800106EB0110B0FBF5F000F0F006BA
:102B3000FEF7CAFF00EBC00101EB001061688900DD
:102B4000B0FBF1F0B0FBF5F006EB0016FEF7BCFFB2
:102B500000EBC00101EB001061688900B0FBF1F7E8
:102B6000FEF7B2FF00EBC00101EB001061688900C5
:102B7000B0FBF1F0B0FBF5F06FF01801484307EB44
:102B8000800108EB0110B0FBF5F0216800F00F00A8
:102B900030448860BDE8F0810038014090F8391079
:102BA000212901D0022070478168B1F5805F016A58
:102BB0000BD04A1C0262026809785160C18C491E20
:102BC0000904090CC1840ED017E009880268C1F31A
:102BD0000801516001690029016A02D0491C0162A3
:102BE000ECE7891CFBE70168CA6822F08002CA6032
:102BF0000068C16841F04001C160002070470000DA
:102C00000148FFF7B3B90000F00000200148FFF7CA
:102C1000ADB9000030010020FEE700000FB4054B05
:102C200010B503A9044A029800F0DAF810BC5DF868
:102C300014FB0000113500081400002002E008C851
:102C4000121F08C1002AFAD170477047002001E026
:102C500001C1121F002AFBD1704700002DE9FF5F60
:102C600082B00021DDE90430020DDDF840B00343FD
:102C700018D044F61050A2F2FF32424315141198B6
:102C800001281FD0A5EB0B00401C5FEA000A4FF0A3
:102C900000064E4FDFF83891B046504615D5CAF1C0
:102CA000000413E0119801244AA3012801D16FEA1E
:102CB0000B010298119AC0E90031C0E9024206B046
:102CC000BDE8F09FCBF10000DFE704460021404A59
:102CD000491842EB0450CDE9001012E0E00707D09C
:102CE00032463B4640464946FDF792FC80468946BF
:102CF00032463B4610461946FDF78AFC06460F460B
:102D00006410002CEAD1DDE90401DDE90023BAF109
:102D1000000F06DAFDF77CFC42464B46FDF778FCD7
:102D200005E0FDF7E7FC42464B46FDF7E3FC0446B1
:102D30000E460022284BFDF765FD03D84FF0FF300B
:102D4000014607E00022254B20463146FDF7B9FB3E
:102D5000FDF73FFD102409E0002C0ADB0A220023C6
:102D6000FDF747FB039B30321A55641E50EA0102FF
:102D7000F2D1641C039AC4F111031444119A012A7C
:102D800003D0012208430DD10AE0084304D00020FB
:102D90004FF0110B119072E7A3EB0B056D1E0DE0C8
:102DA0005B4504DD4FF0000205F1010504E003DAA4
:102DB0004FF00002A5F10105002AECD0029811990C
:102DC000C0E90231C0E9004579E700000000144085
:102DD0000000F03F300000000000F0430000E03F42
:102DE0002DE9FF4F95B09B468946064600250FE228
:102DF000252877D100242746F84A0121059400E0D0
:102E0000044316F8013F203B01FA03F01042F7D1CA
:102E100030782A2811D06FF02F033078A0F13002DB
:102E2000092A16D8059A44F0020402EB820203EB49
:102E300042021044761C0590EFE759F8042B0592E6
:102E4000002A03DA504244F40054059044F002048E
:102E5000761C30782E2816D116F8010F44F00404A1
:102E60002A280DD06FF02F023078A0F13003092B03
:102E700009D807EB870302EB4303C718761CF3E777
:102E800059F8047B761C30786C280FD006DC4C286F
:102E900017D068280DD06A2814D104E0742810D007
:102EA0007A280FD10DE044F400140AE044F48014B1
:102EB00001E044F440147278824202D104F5801497
:102EC000761C761C307866280BD013DC582877D017
:102ED00009DC002875D04528F6D04628F4D04728CC
:102EE0001AD19DE118E0632835D0642879D065288F
:102EF00012D195E1702873D008DC6728F1D06928D9
:102F00006FD06E280DD06F2806D1B5E073282CD075
:102F1000752875D0782874D05A46179990476D1C3B
:102F200075E1C4F30250022809D003280DD0D9F866
:102F3000001004280DD00D6009F1040967E1D9F8EB
:102F40000010EA17C1E90052F6E7D9F800100D8029
:102F5000F2E70D70F0E719F8041B8DF8001000205F
:102F60008DF80100EA46012003E059F804AB4FF068
:102F7000FF3061074FF0000102D40DE008F10101BC
:102F80008846B9420FDA8045F8DB1AF808100029A4
:102F9000F4D108E008F1010188468142FADB1AF811
:102FA00008100029F6D105985B46A0EB08072146DA
:102FB0003846179A00F094FA284400EB080507E019
:102FC0004DE029E10DE01AF8010B5A461799904798
:102FD000B8F10108F7D25B4621463846179A13E14B
:102FE00042E00A220092C4F302524FF0000A022A81
:102FF00008D059F804CB032A4FEAEC710AD00DE04F
:1030000029E02AE009F1070121F00702F2E802C1F4
:10301000914609E00FFA8CFC4FEAEC71042A03D1C7
:103020004FFA8CFC4FEAEC71002907DA0A460021BE
:10303000DCF1000C61EB02012D2202E0220504D537
:103040002B228DF80420012203E0E20701D0202288
:10305000F7E7904659E00A2102E010220DE0102126
:103060004FF0000A00910BE010224FF0000A44F0EC
:1030700004040827009203E008224FF0000A00929F
:10308000C4F30252022A05D059F804CB0021032AC6
:1030900008D009E009F1070121F00702F2E802C1B6
:1030A000914605E01FFA8CFC042A01D10CF0FF0CBC
:1030B0004FF00008220728D5702806D0009B83F027
:1030C000100353EA0A0305D00EE040228DF80420D5
:1030D000012208E05CEA010206D030228DF80420CB
:1030E0008DF8050002229046009B83F0080353EA06
:1030F0000A030AD15CEA010201D1620705D5302238
:103100008DF804204FF001087F1E582804D034A009
:1031100003900EA802900DE036A0F9E753466046F2
:10312000009AFDF766F984460398825C0298401E77
:10313000029002705CEA0100F0D1029806A9081A18
:1031400000F1200A600702D524F4803400E0012752
:10315000574502DDA7EB0A0000E0002000EB0A0162
:10316000009005984144401A0590E00306D45B4660
:103170002146179A059800F0B3F90544002706E0A8
:1031800001A85A46C05D179990476D1C7F1C4745A2
:10319000F6DBE0030CD55B462146179A059800F054
:1031A0009FF9054404E030205A46179990476D1C5A
:1031B0000099481E00900029F5DC08E00298029969
:1031C0005A460078491C0291179990476D1CBAF134
:1031D0000001AAF1010AF1DC65E100000928010003
:1031E000303132333435363738396162636465667D
:1031F000000000003031323334353637383941423F
:10320000434445460000000000F058F90544761C90
:10321000307800287FF4ECAD19B02846BDE8F08F77
:10322000620700D4062709F1070222F0070CFCE828
:103230000223E14603F000485FEA080C02D00FF2D7
:10324000702C0DE05FEA045C02D50FF2682C07E0F9
:103250005FEAC47C02D00FF2602C01E0AFF2700C88
:103260004FF0FF3823F00043CDF850C065280CD054
:1032700006DC452809D046281DD047283DD13DE031
:10328000662818D067287ED138E00021112F01DB95
:10329000112000E0781CCDE9000106A90EA8FFF777
:1032A000DDFCDDE90F010E9A03910021009207F188
:1032B000010A04914DE04FF000400097CDE9011064
:1032C00006A90EA8FFF7CAFCDDE90F0203920E9BC8
:1032D00011990022DDF80CA00093049211B9791C19
:1032E00000EB010AB7EB0A0004D4C0F1FF3007F18C
:1032F000010A0490AAEB0700019044E0012F00DAD4
:1033000001270021112F01DD112000E03846CDE911
:10331000000106A90EA8FFF7A1FCDDE90F010E9A36
:103320000391002104910092BA4621070CD403991D
:10333000514500DA8A46BAF1010F05DD009AAAF17B
:103340000101515C302908D0B84202DA10F1040FB3
:1033500006DA0121CDE9011015E0AAF10101E9E742
:10336000002805DC049901440491AAEB000102E065
:10337000411C514500DD8A460499401A401C0190C9
:103380004FF000400290200704D40198504501DB23
:10339000CDF8048000208DF84F0002980DF14F0702
:1033A000B0F1004F25D02B200E9002984FF002086C
:1033B00000280CDA404202902D200E9007E00A21EE
:1033C0000298FDF700F83031029007F8011DB8F1BE
:1033D0000001A8F10108F2DC02980028EFD1791E63
:1033E0000E980870307800F0200040F0450007F893
:1033F000020D12A8C01B00F107081498007800B154
:10340000012000EB0A01019801EBE07105984144AD
:10341000401A401E0590E00306D45B462146179AE9
:10342000059800F05DF805441498007818B15A46E4
:10343000179990476D1CE00324D55B462146179AE7
:10344000059800F04DF805441CE00498002807DBBF
:10345000DDE90301884203DD0098405C179901E033
:10346000179930205A469047049805F10105401CF1
:1034700004900198401E019004D12E205A461799BD
:1034800090476D1CBAF10001AAF1010ADDDC05E0EC
:1034900017F8010B5A46179990476D1CB8F10001B7
:1034A000A8F10108F4DC5B462146179A0598ABE6C3
:1034B0002D0000002B000000200000002DE9F0414D
:1034C000044600251E461746880404D405E0394604
:1034D0002020B0476D1C641EF9D52846BDE8F08158
:1034E0002DE9F041044600251E469046C80301D54B
:1034F000302700E02027880404D505E041463846FF
:10350000B0476D1C641EF9D52846BDE8F081000067
:1035100004490A685206FCD5024AC1B2121D116064
:1035200070470000003801401FB5FEF713F9FFF7A0
:103530007FF9FEF7F1FEFEF7D9FEFEF73DFFFEF73D
:103540005FFFFEF783FEFEF777FFFDF7BFFAFEF79A
:10355000BFFF0520FDF7E4FF594C2068C00706D0E7
:10356000206820F0010020600120FDF7D9FF2068CD
:1035700040F004002060206840F00100206002E07C
:1035800050A0FFF74BFB20684007F9D403224F49B6
:103590004F48FDF7CFFCFEF77DFF01224D494E4815
:1035A000FEF70CFE4FF4FA70FDF7BAFF4948401ED3
:1035B00001780129F6D1454D00260C3506702868A2
:1035C0001427B0FBF7F0FCF7B9FEDFF810A1514665
:1035D000FCF776FEDFF808B15946FCF73FFEA5F18F
:1035E0001804814620606868B0FBF7F0FCF7A6FE7F
:1035F0005146FCF765FE5946FCF730FE8046606098
:10360000A868B0FBF7F0FCF799FE5146FCF758FEAE
:103610005946FCF723FEA0602E6002466E604146CC
:103620004846AE6000F0BEF8A068FCF7B9FE074659
:1036300088466068FCF7B4FE05460E462068FCF735
:10364000AFFE8DE8E00102460B4626A0FFF7E6FA42
:10365000FEF720FF022131A20846FFF7A8F8102349
:10366000022132202268FFF70FF82DA202216220EA
:10367000FFF79DF82BA204210220FFF798F81023F2
:10368000042132206268FEF7FFFF25A20421622098
:10369000FFF78DF825A206210220FFF788F81023F6
:1036A00006213220A268FEF7EFFF1DA2062162204C
:1036B000FFF77DF8032205490548FDF73BFC71E75C
:1036C00008240140B5C8B4FD0D0A00002400002004
:1036D0003C000020010000203001002000F07F4568
:1036E0000000C842436F6E5B305D203D2025302EC8
:1036F000326625252020436F6E5B315D203D2025FD
:10370000302E326625252020436F6E5B325D203DD2
:103710002025302E326625250D0A0000434F3A0041
:10372000250000004348343A00000000536D6F67E5
:103730003A0000000246012000E05043491EC9B291
:10374000FBD2704705490968090604D50349091DDC
:1037500008600020704701207047000000480040CA
:1037600008B5002100910E49FCF778FDFCF704FE36
:103770006421B0FBF1F28DF80020B0FBF1F201FB07
:1037800012008DF8010000226B46985CFFF7DAFF0B
:103790000028FAD1521CD2B2022AF6D308BD00008A
:1037A0000000C84270B5034614460D46FF20FFF7DF
:1037B000C9FF1846FFF7D4FF2846FFF7D1FF204680
:1037C000BDE87040FFF7CCBF000000000000000023
:1037D0000000000000000000000000F800000000F1
:1037E000000000333000000000100C06100C060032
:1037F000000000000000000040C07840C078400099
:10380000043F04043F040400007088FC08300000FA
:10381000001820FF211E0000F008F000E018000052
:1038200000211C031E211E0000F00888700000000B
:103830001E2123241927211010160E00000000005D
:103840000000000000000000000000E0180402007A
:10385000000000071820400000020418E0000000EB
:103860000040201807000000404080F080404000E9
:103870000202010F01020200000000F0000000003F
:103880000101011F01010100000000000000000013
:1038900080B0700000000000000000000000000088
:1038A0000001010101010101000000000000000011
:1038B00000303000000000000000000080601804AC
:1038C000006018060100000000E010080810E00089
:1038D000000F102020100F00001010F80000000052
:1038E0000020203F20200000007008080888700099
:1038F0000030282422213000003008888848300019
:103900000018202020110E000000C02010F8000038
:1039100000070424243F240000F8088888080800D1
:103920000019212020110E0000E0108888180000E6
:10393000000F112020110E0000380808C8380800B8
:103940000000003F00000000007088080888700038
:10395000001C222121221C0000E010080810E000B9
:103960000000312222110F00000000C0C000000042
:103970000000003030000000000000800000000067
:10398000000080600000000000008040201008005F
:103990000001020408102000404040404040400028
:1039A0000404040404040400000810204080000003
:1039B0000020100804020100007048080808F00008
:1039C0000000003036010000C030C828E810E000D8
:1039D0000718272423140B000000C038E000000063
:1039E000203C23020227382008F8888888700000CD
:1039F000203F202020110E00C030080808083800A1
:103A0000071820202010080008F808080810E00017
:103A1000203F202020100F0008F88888E8081000B8
:103A2000203F20202320180008F88888E80810008C
:103A3000203F200003000000C030080808380000C4
:103A400007182020221E020008F808000008F808C5
:103A5000203F210101213F20000808F8080800004C
:103A60000020203F2020000000000808F80808007F
:103A7000C08080807F00000008F888C028180800F7
:103A8000203F20012638200008F808000000000030
:103A9000203F20202020300008F8F800F8F8080027
:103AA000203F003F003F200008F830C00008F80821
:103AB000203F200007183F00E01008080810E00031
:103AC0000F10202020100F0008F808080808F00048
:103AD000203F210101010000E01008080810E0006B
:103AE0000F18242438504F0008F888888888700000
:103AF000203F2000030C30200070880808083800A0
:103B00000038202121221C00180808F80808180095
:103B10000000203F2000000008F808000008F80816
:103B2000001F202020201F000878880000C83808C7
:103B3000000007380E010000F80800F80008F8003F
:103B4000033C0700073C03000818688080681808D9
:103B500020302C03032C30200838C800C838080057
:103B60000000203F2000000010080808C8380800A6
:103B70002038262120201800000000FE020202004A
:103B80000000007F40404000000C30C000000000FA
:103B9000000000010638C00000020202FE00000022
:103BA000004040407F0000000000040202020400C8
:103BB0000000000000000000000000000000000005
:103BC00080808080808080800002020400000000ED
:103BD00000000000000000000000808080800000E5
:103BE0000019242222223F2008F8008080000000D3
:103BF000003F112020110E00000000808080000096
:103C0000000E112020201100000000808088F800A4
:103C1000000E112020103F200000808080800000D6
:103C2000001F222222221300008080F0888888183A
:103C30000020203F20200000000080808080800045
:103C4000006B94949493600008F8008080800000DA
:103C5000203F210000203F200080989800000000B5
:103C60000020203F202000000000008098980000E5
:103C700000C08080807F000008F800008080800005
:103C8000203F24022D302000000808F8000000002A
:103C90000020203F202000008080808080808000E5
:103CA000203F20003F20003F808000808080000077
:103CB000203F210000203F20000080808080000005
:103CC000001F202020201F00808000808000000036
:103CD00080FFA12020110E00000000808080800065
:103CE000000E112020A0FF80808080008080800056
:103CF00020203F2120000100000080808080800083
:103D00000033242424241900008080E080800000F7
:103D10000000001F20200000808000000080800044
:103D2000001F202020103F208080800000808080A5
:103D300000010E3008060100808000800080808035
:103D40000F300C030C300F0000808000808080005A
:103D50000020312E0E312000808080000080808085
:103D600080818E7018060100008080808080800035
:103D70000021302C2221300000000000807C020253
:103D800000000000003F404000000000FF00000075
:103D900000000000FF0000000002027C8000000024
:103DA0000040403F00000000000601010202040440
:103DB0000000000000000000000000000000000003
:103DC00001020304060708090000000001020304C1
:103DD000F03D000800000020180000003C2C000806
:103DE000083E000818000020580500004C2C000870
:103DF00000000000010000001000000000000000B2
:083E000000A24A0400000000CA
:0400000508000131BD
:00000001FF
