:020000040800F2
:10000000D004002045010008731700085B160008A3
:100010007117000841090008791E0008000000005F
:100020000000000000000000000000002B1B000882
:100030004309000800000000291B00082D1B0008D0
:100040005F0100085F0100085F0100085F01000810
:100050005F0100085F0100085F0100085F01000800
:100060005F0100085F0100085F0100085F010008F0
:100070005F0100085F0100085F0100085F010008E0
:100080005F0100085F0100085F0100085F010008D0
:100090005F0100085F0100085F0100085F010008C0
:1000A0005F0100085F0100085F0100085F010008B0
:1000B0005F0100085F0100085F0100085F010008A0
:1000C0005F0100085F0100085F0100085F01000890
:1000D0005F010008611E00085F0100086D1E000836
:1000E0005F0100085F0100085F0100085F01000870
:1000F0005F0100085F0100085F0100085F01000860
:100100005F0100085F0100085F0100085F0100084F
:100110005F0100085F0100085F0100085F0100083F
:100120005F0100085F0100085F0100085F0100082F
:10013000DFF80CD000F074FB004800478927000866
:10014000D00400200648804706480047FEE7FEE747
:10015000FEE7FEE7FEE7FEE7FEE7FEE7FEE7FEE777
:10016000811B000831010008202A04DB203A21FA13
:1001700002F00021704721FA02F3D040C2F12002C0
:100180009140084319467047D2B201E000F8012BB4
:10019000491EFBD270470022F6E710B513460A4607
:1001A00004461946FFF7F0FF204610BDF0B480EA80
:1001B0000102D40F4200B2EB410F02D202460846C0
:1001C00011464A0042D0C30DDDB2C1F3C752AD1A89
:1001D000202D35DAC1F3160141F4000204B1524278
:1001E000C5F1200602FA06F12A411044B3EBD05FB4
:1001F00023D0C4B1012DA0EBC35009DCF0BC4FF0FB
:10020000004202EAC352DBB200F5000000F022B95E
:10021000400000F1807000EBC350A0F1807040EA14
:10022000D170490009E0490841EAC071A0EBC35010
:1002300000F50000400800EBC350F0BC00F001B92D
:100240006142012202EB4101001BF6E7F0BC70475E
:1002500081F00041AAE780F00040A7E780EA0102B0
:1002600010B502F00043400022D04A001FD0010E1A
:1002700001EB1261C0F35600C2F3560240F40000D5
:1002800042F40002A0FB022000047F39140400D0D5
:10029000401C50EA124001D44000491EC2B20C0674
:1002A00004EBD010401C4008802A02D003E000205C
:1002B00010BD20F00100002900DA0020184310BD15
:1002C00030B480EA010202F0004530F0004221F033
:1002D000004013D090B1C30DD40DC2F31601C0F38A
:1002E0001600E41A41F4000140F400027D3491420A
:1002F00001D3641C00E04900002C02DA30BC00206D
:1003000070474FF400000023914201D3891A034340
:1003100040084FEA4101F7D151B1914202D14FF06B
:10032000004105E002D24FF0010101E06FF0010150
:1003300003EBC450284430BC00F083B8962300225D
:10034000114600F087B800F0004220F00040C10DD7
:10035000C0F3160040F400007F2901DA0020704746
:10036000962903DCC1F19601C84001E09639884026
:10037000002AF4D04042704700F0004230F00040C4
:100380000AD0C10D01F56071C0F3160042EA0151B7
:10039000C208400711437047002001467047000023
:1003A000002801DBC0F10040002901DBC1F1004160
:1003B0008842704730B50B460146002020220124B8
:1003C00009E021FA02F59D4205D303FA02F5491B23
:1003D00004FA02F52844151EA2F10102F1DC30BD39
:1003E0002DE9F05F0546002092469B46884606466A
:1003F000814640241BE02846414647462246FFF7F7
:10040000B3FE53465A46C01A914110D311461846BE
:10041000224600F017FA2D1A67EB01084F462246D4
:100420000120002100F00EFA17EB00094E41201EBA
:10043000A4F10104DFDC484631462A464346BDE8C4
:10044000F09F0029A8BF7047401C490008BF20F05A
:100450000100704710B4B0FA80FC00FA0CF050EACA
:10046000010404BF10BC704749B1CCF1200421FA4B
:1004700004F411FA0CF118BF012121430843A3EB46
:100480000C01CB1D4FEA00614FEA102042BF002053
:1004900010BC704700EBC35010440029A4BF10BC2F
:1004A0007047401C490008BF20F0010010BC704795
:1004B0002DE9FE4F804681EA0300C00F0C460090F4
:1004C00021F0004123F00045B8EB0200A94105D21C
:1004D0004046214690461C460B46024623F000400B
:1004E000104347D0270DC7F30A00C3F30A51029007
:1004F000401A019040286BDAC3F3130040F4801BCC
:100500000098924620B10023D2EB030A63EB0B0B59
:1005100001985946C0F14002504600F093F9064652
:100520000D4650465946019A00F09BF910EB080021
:100530006141002487EA115284EAE7731A4340D0EC
:10054000009A62B3019A012A4FEA075215DC001B98
:1005500061EB02014FF0004202EA0752CDE900428E
:10056000001C41F5801132462B4600F09BF903B088
:10057000BDE8F08F40462146F9E7001B61EB020120
:10058000001C41F5801300185B412018A2F50017EC
:1005900047EB030140EAD570B6196D4111E06D08D3
:1005A0004FEA360645EAC0754FEA0752001B61EB79
:1005B0000201001C41F5801149084FEA3000001982
:1005C000514132462B4603B0BDE8F04F00F05BB915
:1005D0000098012240000023D0EB020263EBE0739D
:1005E000009821464FEAE074B8EB000061EB04018B
:1005F000E9E783F000435BE781F0004158E72DE92C
:10060000FE4F81EA030404F0004421F0004100940D
:100610004FF0000B23F0004350EA01045ED052EA91
:1006200003045BD0C3F30A54C1F30A552C44A4F26B
:10063000F3340194A0FB0254C1F3130141F480117F
:10064000C3F3130343F4801301FB024400FB034E86
:10065000840A970A44EA815447EA8357A4FB07684F
:1006600002958D0A05FB07854FEA932C04FB0C5479
:100670002705029D4FEA065847EA1637B5EB0805ED
:100680006EEB070C870E920E47EA811742EA83123F
:10069000A7FB0201B6EB0B0164EB00042B0D43EA50
:1006A0000C335E1844EB1C50DA465146E7FB02015E
:1006B000C5F313044FEA0B3343EA14534FEA0432F1
:1006C000019C43EA0603A4F10C040294009CCDE9CA
:1006D00000B400F0E7F803B0BDE8F08F0020014659
:1006E000F9E72DE9F04D81EA030404F0004B21F015
:1006F000004514464FF0000A23F0004150EA05027D
:1007000020D054EA01021DD0C5F30A570246C5F3B2
:100710001303C1F31300C1F30A5640F4801543F4E8
:100720008013A7EB0608101BD64608F2FD3873EBC2
:10073000050002D308F1010801E092185B41B8F10D
:10074000000F03DA00200146BDE8F08D00204FF4D1
:100750008011064684460EE0171B73EB050705D390
:10076000121B63EB050306434CEA010C49084FEAF0
:10077000300092185B4150EA0107EDD152EA0300C4
:1007800012D082EA040083EA0501084305D0101B59
:10079000AB4106D20122002306E000224FF00043C5
:1007A00002E06FF0010253101AEB06004CEB085107
:1007B00010EB0A0041EB0B01BDE8F04D00F063B80F
:1007C000C1F30A52C1F3130140F2FF3341F4801127
:1007D0009A4202DA00200146704740F233439A42BF
:1007E000A2F2334202DC5242FFF7BEBC00F02AB84C
:1007F00030B5041E71F1000404DB4FF000444042A8
:1008000064EB0101141E73F1000405DB1C464FF07C
:100810000043524263EB0403994208BF904230BD4B
:10082000064C074D06E0E06840F0010394E807003D
:1008300098471034AC42F6D3FFF77EFCA83000088E
:10084000C8300008202A04DB203A00FA02F1002018
:1008500070479140C2F1200320FA03F319439040FE
:100860007047202A06DBCB17203A41FA02F043EA10
:10087000E07306E041FA02F3D040C2F12002914059
:1008800008431946704710B5141E73F1000408DAC6
:10089000401C41F1000192185B411A4301D120F044
:1008A000010010BD2DE9F04D92469B4611B1B1FA01
:1008B00081F202E0B0FA80F220329046FFF7C2FFE8
:1008C00004460F4640EA0A0041EA0B0153465A46E5
:1008D000084313D0114653EA010019D0C8F1400271
:1008E0005046FFF741FC05460E46504659464246E3
:1008F000FFF7A8FF084305D0012004E02046394651
:10090000BDE8F08D0020054346EAE0762C433743EE
:100910000A986305E40AA0EB08000022FD0A44EAF5
:1009200047540A3002D500200146E9E701051019B5
:100930006941DDE9084500196941BDE8F04DA2E7CC
:10094000FEE77047704700002DE9F05F90F8211036
:100950000024022903D004218163012485E0016879
:100960000A6822F00E020A6001680A6822F0010299
:100970000A603F4E3E4FB215DFF8F4C0DFF8F0904A
:10098000DFF8ECA0DFF8E8B0DFF8E4E00168783FDA
:1009900013011502ACF1640CA9F15009AAF13C0A4B
:1009A000ABF1280BAEF1140E4FF48018B14227D9E9
:1009B000B9420ED0614512D049451DD0514518D0DD
:1009C000594518D0714501D1424615E0294EB14232
:1009D00001D1012210E0274E1436B14201D110227C
:1009E0000AE0244E2836B14206D0224A3C329142D7
:1009F00001D11A4600E02A461E49091F0A602BE071
:100A0000B94213D0614517D0494522D051451DD078
:100A100059451DD0714501D142461AE0B14202D17B
:100A20004FF0807215E0134EB14201D1012210E067
:100A3000104E1436B14201D110220AE00D4E283674
:100A4000B14206D00B4A3C32914201D11A4600E035
:100A50002A46074980394A60012180F82110002187
:100A600080F82010416B01B188472046BDE8F09F17
:100A7000800002400804024070B5044600F008F906
:100A80000546601C02D004480078044400F000F9D8
:100A9000401BA042FAD370BD240000202DE9F84F7E
:100AA000DFF8B8A100220AF1040B144601274FF029
:100AB0000F090BF1040E00BF0B6807FA04F52B4079
:100AC000AB4274D1DFF898C14E68A6EB0C086645BE
:100AD0002BD00DDC032E34D005DC36B3012E19D01B
:100AE000022E2FD11BE0112E16D0122E2AD119E082
:100AF000B8F5881F19D006DCB8F5803F15D0B8F5D9
:100B0000801F1FD111E0B8F5001F0ED0B8F5041FEB
:100B100018D10AE0CA6815E0CA68121D12E0CA6856
:100B200008320FE0CA680C320CE08A682AB1012A48
:100B30004FF0080203D0456104E0042202E00561A1
:100B400000E00022FF2B01D8064601E000F1040678
:100B50004FEA840501D9A5F12005D6F800C009FAAD
:100B600005F82CEA080C02FA05F54CEA050CC6F863
:100B700000C04D68ED006AD53A4DAE6946F00106F9
:100B8000AE61AD6924F0030605F001050095364D10
:100B900006EB050CDCF80850A6074FEA167809FAB0
:100BA00008F6B543314EB04202D100261AE04EE0BD
:100BB0002F4EB04201D1012614E02E4EB04201D199
:100BC00002260FE02C4EB04201D103260AE02B4E44
:100BD000B04201D1042605E0294EB04201D10526DC
:100BE00000E0062606FA08F62E43CCF808604D68A9
:100BF000DAF80060ED03554601D51E4300E09E4340
:100C00002E604D68AD0305D5DBF800601E43CBF8C0
:100C1000006004E0DBF800509D43CBF800504D68C5
:100C2000DEF80060ED02754601D51E4300E09E43EC
:100C30002E604D68AD0205D5084D0C352E681E435B
:100C40002E6004E0054E0C3635689D433560641C0B
:100C5000102CFFF431AFBDE8F88F00000004014014
:100C60000000111000100240000001400008014087
:100C7000000C014000100140001401400018014028
:100C8000001C01400AB1016170470904FBE7000044
:100C900001488068704700002400002002488168F5
:100CA000027811448160704724000020074810B585
:100CB000016841F010010160032000F073F800208A
:100CC00000F006F800F024F8002010BD00200240DB
:100CD00070B50D4D04464FF47A712878B1FBF0F0F1
:100CE0000A490968B1FBF0F000F0FCFA48B9102C91
:100CF00007D200222146501E00F034F800206C601C
:100D000070BD012070BD00002400002030000020D4
:100D10000C4808B5816941F001018161816901F0E8
:100D200001010091C16941F08051C161C06900F0C9
:100D3000805000900448416821F0E06141F08061FA
:100D4000416008BD001002400000014000F01F0299
:100D5000012191404009800000F1E020C0F800111D
:100D600070470000F0B40E4B1B680C46C3F302231F
:100D7000C3F10705042D00D90425191D072901D247
:100D8000002300E0DB1E012606FA05F1491E214082
:100D900099409E40761E16403143F0BC00F0EABCFC
:100DA0000CED00E0064900F0070208684FF6FF036B
:100DB000184040EA0220034A1043086070470000D0
:100DC0000CED00E00000FA052DE9F047DFF8548152
:100DD00005460E46D8F8000000F00700B0420CD2DD
:100DE000D8F8001021F007013143C8F80010D8F8F6
:100DF000000000F00700B0426FD128684A4C81071C
:100E000012D5400703D5606840F4E0606060287840
:100E1000000703D5606840F4605060606068A968AE
:100E200020F0F000084360602878C00744D068686C
:100E3000012816D02168022816D0890700294CDA2B
:100E4000616821F0030101436160FFF721FF6968D8
:100E5000074641F2883001290ED00229814618D078
:100E600026E021688903E9E78901E7E7FFF710FF3A
:100E7000C11B494501D918E081466068C0F3810073
:100E80000128F3D118E000BFFFF702FFC11B49455D
:100E90000BD86068C0F381000228F5D10CE000BFD8
:100EA000FFF7F6FEC11B494502D90320BDE8F087D4
:100EB000606810F00C0FF3D1D8F80010404601F034
:100EC0000701B1420BD9016821F0070131430160EC
:100ED000006800F00700B04201D00120E6E7287862
:100EE000400705D56068E96820F4E0600843606069
:100EF0002878000706D56068296920F4605040EA28
:100F0000C100606000F036F86168084AC1F303115F
:100F1000515CC840064908600020FFF7D9FE002058
:100F2000C4E700000020024000100240903000089A
:100F3000300000200448054900684968044AC1F3AC
:100F40000221515CC8407047300000200010024070
:100F5000A03000080448054900684968044AC1F304
:100F6000C221515CC8407047300000200010024090
:100F7000A030000812A185B00FC98DE80F0014A0A1
:100F8000144A006804905168134801F00C03042BC4
:100F900010D0082B0ED1C1F38343C9031DF8030001
:100FA0000AD5516804AAC1F34041515C0A4A504332
:100FB000B0FBF1F005B0704708494843FAE700007C
:100FC00002030405060708090A0B0C0D0E0F10108A
:100FD000010200000010024000127A0000093D00EA
:100FE0002DE9F84F04460078B94DC00748D068682D
:100FF000C0F38100012807D06868C0F3810002288F
:1010000009D16868C00306D52868800338D56068B0
:1010100000286FD034E06068B0F5803F0BD010B18D
:10102000B0F5A02F11D0286820F4803028602868FF
:1010300020F4802002E0286840F480302860606856
:1010400088B1FFF725FE064609E0286840F48020B5
:101050002860F0E7FFF71CFE801B642875D828681D
:101060008003F7D50CE0FFF713FE064605E000BF4E
:10107000FFF70EFE801B6428F0D828688003F7D4A1
:101080002078944E80074FF001094FF000083BD5BF
:10109000686810F00C0F07D06868C0F38100022860
:1010A00009D16868C00306D42868800714D5206970
:1010B00001281FD110E02069B0B1C6F80090FFF7F9
:1010C000E7FD074605E000BFFFF7E2FDC01B022871
:1010D000C4D828688007F7D52868616920F0F8002F
:1010E00040EAC10028600FE0C6F80080FFF7D0FD9D
:1010F000074606E0E9E000BFFFF7CAFDC01B022873
:1011000023D828688007F7D4207800072CD57248A8
:10111000A169D9B1C0F80090FFF7BAFD074604E015
:10112000FFF7B6FDC01B02280FD8686A8007F7D505
:101130006A484FF4FA510068B0FBF1F0009000BF2C
:101140000098411E0091FAD20EE080E0C0F80080C5
:10115000FFF79EFD074604E0FFF79AFDC01B02283B
:1011600075D8686A8007F7D42078400760D5E869A9
:101170000027C00008D4E86940F08050E861E869C1
:10118000012700F08050009055480168C90513D42C
:101190000168834641F480710160FFF779FD824662
:1011A00006E000BFFFF774FDA0EB0A0064284ED8EC
:1011B000DBF80000C005F5D5E06801280AD008B1C9
:1011C000052813D0286A20F001002862286A20F040
:1011D000040002E0286A40F001002862E06841F261
:1011E000883B98B1FFF754FD82460BE0286A40F037
:1011F00004002862EEE700BFFFF74AFDA0EB0A01FA
:1012000059455AD8286A8007F6D50CE0FFF740FD0B
:10121000824605E0FFF73CFDA0EB0A0159454CD89A
:10122000286A8007F6D41FB1E86920F08050E86191
:10123000E06988B36968C1F38101022945D00228B9
:10124000C6F8608004D0FFF723FD044638E034E0A0
:10125000FFF71EFD074604E0FFF71AFDC01B02283A
:101260002BD828688001F7D4206AB0F5803F05D1DB
:101270006868A16820F4003008436860D4E9080178
:101280000843696821F4741108436860C6F86090E7
:10129000FFF7FEFC044606E015E000BFFFF7F8FC90
:1012A000001B022809D828688001F7D50BE000BF91
:1012B000FFF7EEFC001B022802D90320BDE8F88FDF
:1012C00028688001F4D40020F8E70120F6E7000048
:1012D00000100240000042428004424230000020E0
:1012E0000070004010B5401EB0F1807F01D3012096
:1012F00010BD4FF0E02460610F21601700F03AFA52
:101300000020A06107202061002010BD7047000070
:1013100070B5026804461068D168536910F00F0F69
:1013200050D003F0010501F4907635435DD0C2073B
:1013300005D0CA0503D5E26B42F00102E263420721
:1013400005D5DA0703D0E26B42F00202E2638207BE
:1013500005D5DA0703D0E26B42F00402E26302072C
:1013600005D5DA0703D0E26B42F00802E263E26BD4
:10137000002A33D0800604D5880602D5204600F026
:1013800039FC20684069E16BC0F38010090700D484
:1013900028B3204600F020FC2068416949061AD590
:1013A000416921F040014161606BA0B11B4941637B
:1013B000606BFFF7C9FA002810D0606B416BBDE885
:1013C00070400847830610D58B060ED52046BDE831
:1013D000704000F00FBC2046FFF798FF70BD20461C
:1013E000FFF794FF0020E06370BD030606D50B06EF
:1013F00004D52046BDE8704000F000BD4006F3D59E
:101400004806F1D5D168204621F04001D160202165
:1014100084F8391000F020F970BD0000C91B0008E5
:1014200070B5040004D094F83900002510B106E02E
:10143000012070BD84F83850204600F023F82420A5
:1014400084F839002068C16821F40051C160204649
:1014500000F01CFC2068016921F4904101612068C2
:10146000416921F02A0141612068C16841F40051BD
:10147000C160E563202084F8390084F83A00002038
:1014800070BD000070B586B00024009401940294F1
:10149000039403682E482D4E022103220515B34202
:1014A00026D1836943F480438361836903F48043D5
:1014B0000493836943F0040383618069254E00F03F
:1014C000040004900802CDE9000103926946304609
:1014D000FFF7E4FACDE90054694630460294FFF77D
:1014E000DDFA002211462520FFF73CFC252028E0EC
:1014F000194EB34227D1C36943F48023C361C36942
:1015000003F480230493836943F0080383618069B3
:10151000CDE9005100F00800CDE903200F4D6946E8
:101520002846FFF7BBFAE814CDE9000469462846CF
:101530000294FFF7B3FA002211462720FFF712FCAE
:101540002720FFF703FC06B070BD00000038014003
:10155000001002400008014000480040000C01401B
:1015600090F83A30202B22D1F9B1F2B190F838300E
:10157000012B1CD081628285C2850021C163222299
:1015800080F83A2080F838100168CA6842F4807206
:10159000CA6001684A6942F001024A610068C16894
:1015A00041F02001C16000207047012070470220F7
:1015B0007047000030B4234C036800210122224808
:1015C000A3421BD14378A3B9C479FF2C03D043793C
:1015D000012B02D00DE042710BE01B4DC3780935A1
:1015E000EC545B1CDBB2C370062B02D3C17041719B
:1015F000427015490122C91D14481DE0144CA34234
:101600001DD10378A3B9047AFE2C03D08379012B72
:1016100002D00DE082710BE00B4D03790F35EC54D5
:101620005B1CDBB20371062B02D301718171027066
:10163000054901220748083130BCFFF791BF30BC93
:10164000704700000048004000000020900000208B
:1016500000380140500000207047FEE7F0B585B02B
:10166000002000900190029003902248816941F08F
:1016700010018161816901F010010491816941F0DB
:1016800008018161816901F008010491816941F0DB
:1016900004018161816901F004010491816941F0D3
:1016A000200181618069144E00F020004FF4005445
:1016B0000490002221463046FFF7E4FA0F4F012242
:1016C000F8213846FFF7DEFA009401240325694625
:1016D00030460194CDE90245FFF7E0F9F820CDE965
:1016E000000469463846CDE90245FFF7D7F905B051
:1016F000F0BD000000100240000C01400014014049
:101700000C4810B50A4901604FF4E13141600021F5
:1017100081600C22C160C0E904128161C161FFF7E0
:101720007FFE002803D0BDE81040FFF70BB910BDC5
:1017300000380140500000200C4810B50A490160F3
:101740004FF4E1314160002181600C22C160C0E9A9
:1017500004128161C161FFF763FE002803D0BDE878
:101760001040FFF7EFB810BD004800409000002087
:10177000FEE770470907090E002806DA00F00F009F
:1017800000F1E02080F8141D704700F1E02080F89F
:101790000014704730B5002404F1B000C0B200213D
:1017A00000F09CF90021022000F098F9002110209F
:1017B00000F094F900250121002000F08FF96D1C44
:1017C000EDB2802DF7D3641CE4B2082CE4D330BD15
:1017D00070B5484C102525606420FFF74DF92804AA
:1017E00020606420FFF748F925600021AE2000F05A
:1017F00075F90021022000F071F90021102000F09D
:101800006DF90021402000F069F90021812000F0ED
:1018100065F90021CF2000F061F90021A12000F03E
:101820005DF90021C82000F059F90021A62000F040
:1018300055F90021A82000F051F900213F2000F0C7
:101840004DF90021812000F049F90021FF2000F02E
:1018500045F90021D32000F041F90021084600F0AD
:101860003DF90021D52000F039F90021802000F059
:1018700035F90021D92000F031F90021F12000F0E4
:101880002DF90021DA2000F029F90021122000F0C2
:1018900025F90021DB2000F021F90021402000F093
:1018A0001DF90021202000F019F90021022000F08C
:1018B00015F900218D2000F011F90021142000F00D
:1018C0000DF90021A42000F009F90021A62000F064
:1018D00005F90021AF2000F001F90021AF2000F050
:1018E000FDF8FFF757FFBDE870400021084600F003
:1018F00003B800001014014010B50446B031C8B25E
:10190000002100F0EBF8102040EA1410002100F054
:10191000E5F804F00F00BDE8104040F001000021A0
:1019200000F0DCB82DE9F041203A00240D46804655
:10193000D7B27F2803D900208D1C8046EDB22946FE
:10194000FFF7DAFF0F4E00BF04EB07100121305CF8
:1019500000F0C4F8641CE4B2082CF5D36D1CE9B2A5
:101960004046FFF7C9FF002404EB07103044012173
:10197000007A00F0B3F8641CE4B2082CF4D3BDE89C
:10198000F0810000A02A00082DE9F84F00241D4630
:101990008B460646174612F1FF4F01D2A04603E0E0
:1019A0004FF0010882F000473846FEF7CCFC824633
:1019B000FEF7C4FC3946FEF74EFC2349FEF74EFC09
:1019C000FEF7C1FC814650460A21B0FBF1F0641CD1
:1019D000E4B20028F9D1B8F1000F04D02D22594605
:1019E0003046FFF79FFF6F0808FB0760C0B2234631
:1019F00052465946009500F029F8444407FB04601C
:101A0000C0B22E225946FFF78DFFB9F10A0F00959B
:101A10000FD2601C07FB0060C0B2012300225946B0
:101A200000F014F8A41C07FB0460C0B20123009569
:101A300004E0641C07FB0460C0B202234A46594616
:101A400000F004F8BDE8F88F0000C8422DE9F04727
:101A50008046002608981D4691468A463446470827
:101A600021E0281B401EC1B20A2001F003F8B9FB97
:101A7000F0F00A21B0FBF1F201FB120026B9691E59
:101A80008C4201DA30B101263030C2B207FB04804B
:101A9000C0B203E007FB0480C0B220225146FFF72A
:101AA00041FF641CE4B2AC42DBD3BDE8F087F0B583
:101AB00017460E46044600250CE031462046FFF747
:101AC00031FF0834E4B2782C02D90024B61CF6B2F7
:101AD0006D1CEDB27A5D002AEFD1F0BDF0B5114A70
:101AE000202309B1136002E04FF4001111604FF49C
:101AF000002111604FF480040021802566004027FA
:101B000014605FEA006C01D5156000E01660176094
:101B10004006491C000EC9B20829F1D30820106004
:101B20001360F0BD1014014070477047FFF7B6B85E
:101B300030B58FB028216846FEF72DFB14210AA886
:101B4000FEF729FB01210804CDE9001000240294CE
:101B500002250491CDE907504FF4E0100990684642
:101B6000FFF73EFA0F20CDE90A056802CDE90C40E7
:101B700002210AA80E94FFF727F90FB030BD00002C
:101B80000D48016841F00101016041680B4A1140B4
:101B9000416001680A4A11400160016821F4802116
:101BA0000160416821F4FE0141604FF41F01816032
:101BB0000449C00308607047001002400000FFF8AD
:101BC000FFFFF6FE08ED00E010B5406A0021C18578
:101BD000C184FFF79BFB10BD0168CA6822F49072B4
:101BE000CA6001684A6922F001024A61202180F836
:101BF0003A10704710B590F83A10222901D002200F
:101C000010BD8168B1F5805F11D0016900290168BC
:101C10001FD0496801F07F03816A4A1C82620B7001
:101C2000C18D491E0904090CC18518D02BE0026939
:101C3000816A002A0268526805D0D2B20A80816A9D
:101C4000491C8162ECE7C2F308020A80816A891CA0
:101C5000F7E74A68816A4B1C83620A70E0E7016813
:101C6000CA6822F02002CA600168CA6822F4807241
:101C7000CA6001684A6922F001024A61202180F8A5
:101C80003A10FFF797FC002010BD00002DE9F0414D
:101C9000044600680169E26821F440511143016182
:101CA0002169A0680843616908432168CA6841F254
:101CB0000C639A430243CA6020684169A26921F417
:101CC0004071114341614C492068642532268842A5
:101CD0003CD1FFF73FF900EBC00101EB0010616858
:101CE0008900B0FBF1F7FFF735F900EBC00101EB1C
:101CF00000106168B0468900B0FBF1F0B0FBF5F070
:101D00006FF01801484307EB800106EB0110B0FBB0
:101D1000F5F000F0F006FFF71DF900EBC00101EB54
:101D2000001061688900B0FBF1F0B0FBF5F006EB44
:101D30000016FFF70FF900EBC00101EB001061681E
:101D40008900B0FBF1F7FFF705F93BE0FFF7F2F888
:101D500000EBC00101EB001061688900B0FBF1F7F6
:101D6000FFF7E8F800EBC00101EB00106168B04636
:101D70008900B0FBF1F0B0FBF5F06FF018014843BB
:101D800007EB800106EB0110B0FBF5F000F0F00668
:101D9000FFF7D0F800EBC00101EB0010616889008B
:101DA000B0FBF1F0B0FBF5F006EB0016FFF7C2F860
:101DB00000EBC00101EB001061688900B0FBF1F796
:101DC000FFF7B8F800EBC00101EB00106168890073
:101DD000B0FBF1F0B0FBF5F06FF01801484307EBF2
:101DE000800108EB0110B0FBF5F0216800F00F0056
:101DF00030448860BDE8F0810038014090F8391027
:101E0000212901D0022070478168B1F5805F016A05
:101E10000BD04A1C0262026809785160C18C491ECD
:101E20000904090CC1840ED017E009880268C1F3C7
:101E30000801516001690029016A02D0491C016250
:101E4000ECE7891CFBE70168CA6822F08002CA60DF
:101E50000068C16841F04001C16000207047000087
:101E60000148FFF755BA0000500000200148FFF775
:101E70004FBA000090000020FEE700000FB4054BB1
:101E800010B503A9044A029800F0DAF810BC5DF816
:101E900014FB0000712700083400002002E008C88D
:101EA000121F08C1002AFAD170477047002001E0D4
:101EB00001C1121F002AFBD1704700002DE9FF5F0E
:101EC00082B00021DDE90430020DDDF840B00343AB
:101ED00018D044F61050A2F2FF3242431514119864
:101EE00001281FD0A5EB0B00401C5FEA000A4FF051
:101EF00000064E4FDFF83891B046504615D5CAF16E
:101F0000000413E0119801244AA3012801D16FEACB
:101F10000B010298119AC0E90031C0E9024206B0F3
:101F2000BDE8F09FCBF10000DFE704460021404A06
:101F3000491842EB0450CDE9001012E0E00707D049
:101F400032463B4640464946FEF759FB80468946A5
:101F500032463B4610461946FEF751FB06460F46F1
:101F60006410002CEAD1DDE90401DDE90023BAF1B7
:101F7000000F06DAFEF743FB42464B46FEF73FFBF7
:101F800005E0FEF7AEFB42464B46FEF7AAFB0446D1
:101F90000E460022284BFEF72BFC03D84FF0FF30F3
:101FA000014607E00022254B20463146FEF780FA25
:101FB000FEF706FC102409E0002C0ADB0A220023AD
:101FC000FEF70EFA039B30321A55641E50EA0102E6
:101FD000F2D1641C039AC4F111031444119A012A2A
:101FE00003D0012208430DD10AE0084304D00020A9
:101FF0004FF0110B119072E7A3EB0B056D1E0DE076
:102000005B4504DD4FF0000205F1010504E003DA51
:102010004FF00002A5F10105002AECD002981199B9
:10202000C0E90231C0E9004579E700000000144032
:102030000000F03F300000000000F0430000E03FEF
:102040002DE9FF4F95B09B468946064600250FE2D5
:10205000252877D100242746F84A0121059400E07D
:10206000044316F8013F203B01FA03F01042F7D178
:1020700030782A2811D06FF02F033078A0F1300289
:10208000092A16D8059A44F0020402EB820203EBF7
:1020900042021044761C0590EFE759F8042B059294
:1020A000002A03DA504244F40054059044F002043C
:1020B000761C30782E2816D116F8010F44F004044F
:1020C0002A280DD06FF02F023078A0F13003092BB1
:1020D00009D807EB870302EB4303C718761CF3E725
:1020E00059F8047B761C30786C280FD006DC4C281D
:1020F00017D068280DD06A2814D104E0742810D0B5
:102100007A280FD10DE044F400140AE044F480145E
:1021100001E044F440147278824202D104F5801444
:10212000761C761C307866280BD013DC582877D0C4
:1021300009DC002875D04528F6D04628F4D0472879
:102140001AD19DE118E0632835D0642879D065283C
:1021500012D195E1702873D008DC6728F1D0692886
:102160006FD06E280DD06F2806D1B5E073282CD023
:10217000752875D0782874D05A46179990476D1CE9
:1021800075E1C4F30250022809D003280DD0D9F814
:10219000001004280DD00D6009F1040967E1D9F899
:1021A0000010EA17C1E90052F6E7D9F800100D80D7
:1021B000F2E70D70F0E719F8041B8DF8001000200D
:1021C0008DF80100EA46012003E059F804AB4FF016
:1021D000FF3061074FF0000102D40DE008F101016A
:1021E0008846B9420FDA8045F8DB1AF80810002952
:1021F000F4D108E008F1010188468142FADB1AF8BF
:1022000008100029F6D105985B46A0EB0807214687
:102210003846179A00F094FA284400EB080507E0C6
:102220004DE029E10DE01AF8010B5A461799904745
:10223000B8F10108F7D25B4621463846179A13E1F8
:1022400042E00A220092C4F302524FF0000A022A2E
:1022500008D059F804CB032A4FEAEC710AD00DE0FC
:1022600029E02AE009F1070121F00702F2E802C1A2
:10227000914609E00FFA8CFC4FEAEC71042A03D175
:102280004FFA8CFC4FEAEC71002907DA0A4600216C
:10229000DCF1000C61EB02012D2202E0220504D5E5
:1022A0002B228DF80420012203E0E20701D0202236
:1022B000F7E7904659E00A2102E010220DE01021D4
:1022C0004FF0000A00910BE010224FF0000A44F09A
:1022D00004040827009203E008224FF0000A00924D
:1022E000C4F30252022A05D059F804CB0021032A74
:1022F00008D009E009F1070121F00702F2E802C164
:10230000914605E01FFA8CFC042A01D10CF0FF0C69
:102310004FF00008220728D5702806D0009B83F0D4
:10232000100353EA0A0305D00EE040228DF8042082
:10233000012208E05CEA010206D030228DF8042078
:102340008DF8050002229046009B83F0080353EAB3
:102350000A030AD15CEA010201D1620705D53022E5
:102360008DF804204FF001087F1E582804D034A0B7
:1023700003900EA802900DE036A0F9E753466046A0
:10238000009AFEF72DF884460398825C0298401E5E
:10239000029002705CEA0100F0D1029806A9081AC6
:1023A00000F1200A600702D524F4803400E0012700
:1023B000574502DDA7EB0A0000E0002000EB0A0110
:1023C000009005984144401A0590E00306D45B460E
:1023D0002146179A059800F0B3F90544002706E056
:1023E00001A85A46C05D179990476D1C7F1C474550
:1023F000F6DBE0030CD55B462146179A059800F002
:102400009FF9054404E030205A46179990476D1C07
:102410000099481E00900029F5DC08E00298029916
:102420005A460078491C0291179990476D1CBAF1E1
:102430000001AAF1010AF1DC65E1000009280100B0
:10244000303132333435363738396162636465662A
:1024500000000000303132333435363738394142EC
:10246000434445460000000000F058F90544761C3E
:10247000307800287FF4ECAD19B02846BDE8F08F25
:10248000620700D4062709F1070222F0070CFCE8D6
:102490000223E14603F000485FEA080C02D00FF285
:1024A000702C0DE05FEA045C02D50FF2682C07E0A7
:1024B0005FEAC47C02D00FF2602C01E0AFF2700C36
:1024C0004FF0FF3823F00043CDF850C065280CD002
:1024D00006DC452809D046281DD047283DD13DE0DF
:1024E000662818D067287ED138E00021112F01DB43
:1024F000112000E0781CCDE9000106A90EA8FFF725
:10250000DDFCDDE90F010E9A03910021009207F135
:10251000010A04914DE04FF000400097CDE9011011
:1025200006A90EA8FFF7CAFCDDE90F0203920E9B75
:1025300011990022DDF80CA00093049211B9791CC6
:1025400000EB010AB7EB0A0004D4C0F1FF3007F139
:10255000010A0490AAEB0700019044E0012F00DA81
:1025600001270021112F01DD112000E03846CDE9BF
:10257000000106A90EA8FFF7A1FCDDE90F010E9AE4
:102580000391002104910092BA4621070CD40399CB
:10259000514500DA8A46BAF1010F05DD009AAAF129
:1025A0000101515C302908D0B84202DA10F1040F61
:1025B00006DA0121CDE9011015E0AAF10101E9E7F0
:1025C000002805DC049901440491AAEB000102E013
:1025D000411C514500DD8A460499401A401C019077
:1025E0004FF000400290200704D40198504501DBD1
:1025F000CDF8048000208DF84F0002980DF14F07B0
:10260000B0F1004F25D02B200E9002984FF0020819
:1026100000280CDA404202902D200E9007E00A219B
:102620000298FDF7C7FE3031029007F8011DB8F19E
:102630000001A8F10108F2DC02980028EFD1791E10
:102640000E980870307800F0200040F0450007F840
:10265000020D12A8C01B00F107081498007800B101
:10266000012000EB0A01019801EBE071059841445B
:10267000401A401E0590E00306D45B462146179A97
:10268000059800F05DF805441498007818B15A4692
:10269000179990476D1CE00324D55B462146179A95
:1026A000059800F04DF805441CE00498002807DB6D
:1026B000DDE90301884203DD0098405C179901E0E1
:1026C000179930205A469047049805F10105401C9F
:1026D00004900198401E019004D12E205A4617996B
:1026E00090476D1CBAF10001AAF1010ADDDC05E09A
:1026F00017F8010B5A46179990476D1CB8F1000165
:10270000A8F10108F4DC5B462146179A0598ABE670
:102710002D0000002B000000200000002DE9F041FA
:10272000044600251E461746880404D405E03946B1
:102730002020B0476D1C641EF9D52846BDE8F08105
:102740002DE9F041044600251E469046C80301D5F8
:10275000302700E02027880404D505E041463846AC
:10276000B0476D1C641EF9D52846BDE8F081000015
:1027700004490A685206FCD5024AC1B2121D116012
:1027800070470000003801401FB5FEF78FFAFFF7D1
:10279000CFF9FEF763FFFEF7CFFFFEF7B1FFFFF7BC
:1027A00017F8012297499848FEF7DAFE9549012269
:1027B000491C9648FEF7D4FE924CDFF854B24FF015
:1027C000000AE41F2078012871D18E480830417832
:1027D000037803EBC30202EB031201EB82028D4983
:1027E0000A60C578837803EBC30606EB031305EB99
:1027F00083074F604379007900EBC00505EB0010BB
:1028000003EB800610468E60FDF798FD5946FDF7F4
:1028100057FD7C4D113528603846FDF78FFD594630
:10282000FDF74EFD68603046FDF788FD5946FDF71F
:1028300047FDA860FEF7AEFF77A200210220FFF758
:1028400036F9022177A20846FFF731F92A681023EA
:1028500002213220FFF798F873A202216220FFF7CD
:1028600026F972A204210220FFF721F96A681023D9
:1028700004213220FFF788F86BA204216220FFF7C1
:1028800016F96CA206210220FFF711F9AA6810239D
:1028900006213220FFF778F863A206216220FFF7B5
:1028A00006F984F800A04FF4FA60FEF7E5F86078C6
:1028B000012887D15348801C4278017801EBC1037D
:1028C00003EB011102EB810252490A60C37886785A
:1028D00006EBC60505EB061503EB850398464B6032
:1028E0004379007900EBC00505EB001003EB80068F
:1028F00010468E60FDF722FDD9465946FDF7E0FCF3
:10290000444D07460C3528604046FDF717FD494603
:10291000FDF7D6FC68603046FDF710FD4946FDF72F
:10292000CFFC384EA860113631683846FDF738FDC7
:102930000CD20120A070AA2000F0A4F83F484FF468
:10294000005101603EA0FFF799FA12E071686868D3
:10295000FDF726FDEDD3B168A868FDF721FDE8D3AA
:1029600084F802A0CC2000F08DF834484FF00051DC
:102970000160FEF70FFF02212AA20846FFF797F831
:102980001023022132202A68FEF7FEFF26A2022130
:102990006220FFF78CF825A204210220FFF787F8B8
:1029A0001023042132206A68FEF7EEFF1EA20421E4
:1029B0006220FFF77CF81FA206210220FFF777F8BC
:1029C000102306213220AA68FEF7DEFF16A2062198
:1029D0006220FFF76CF8A868FDF7CEFC80468946B8
:1029E0006868FDF7C9FC06460F462868FDF7C4FC79
:1029F0008DE8C00302460B4613A0FFF73FFA84F8A8
:102A000001A0DFE607000020900000205000002019
:102A10000000C84238000020737563636565642157
:102A200000000000434F3A00250000004348343ABC
:102A300000000000536D6F673A000000100C014069
:102A4000416C61726D0D0A00434F203D2025302EF0
:102A50003266252520434834203D2025302E32661D
:102A6000252520536D6F67203D2025302E326625A9
:102A7000250D0A000246012000E05043491EC9B25C
:102A8000FBD2704705490968090604D50349091DA9
:102A90000860002070470120704700000048004097
:102AA0000000000000000000000000000000000026
:102AB000000000F8000000000000003330000000BB
:102AC00000100C06100C06000000000000000000C2
:102AD00040C07840C0784000043F04043F04040034
:102AE000007088FC08300000001820FF211E000044
:102AF000F008F000E018000000211C031E211E0059
:102B000000F00888700000001E21232419272110DE
:102B100010160E0000000000000000000000000081
:102B2000000000E018040200000000071820400028
:102B300000020418E0000000004020180700000018
:102B4000404080F0804040000202010F010202007C
:102B5000000000F0000000000101011F0101010060
:102B6000000000000000000080B0700000000000C5
:102B7000000000000000000000010101010101014E
:102B800000000000000000000030300000000000E5
:102B900000000000806018040060180601000000BA
:102BA00000E010080810E000000F102020100F00B7
:102BB000001010F8000000000020203F202000003E
:102BC0000070080808887000003028242221300096
:102BD00000300888884830000018202020110E009E
:102BE0000000C02010F8000000070424243F240047
:102BF00000F80888880808000019212020110E001C
:102C000000E0108888180000000F112020110E002D
:102C100000380808C83808000000003F0000000025
:102C20000070880808887000001C222121221C00E6
:102C300000E010080810E0000000312222110F000F
:102C4000000000C0C00000000000003030000000A4
:102C50000000008000000000000080600000000014
:102C6000000080402010080000010204081020002D
:102C70004040404040404000040404040404040078
:102C8000000810204080000000201008040201000D
:102C9000007048080808F00000000030360100000D
:102CA000C030C828E810E0000718272423140B00C0
:102CB0000000C038E0000000203C2302022738203A
:102CC00008F8888888700000203F202020110E001E
:102CD000C030080808083800071820202010080015
:102CE00008F808080810E000203F202020100F00FE
:102CF00008F88888E8081000203F202023201800CA
:102D000008F88888E8081000203F20000300000031
:102D1000C03008080838000007182020221E0200D2
:102D200008F808000008F808203F210101213F2091
:102D3000000808F8080800000020203F20200000BC
:102D400000000808F8080800C08080807F000000AC
:102D500008F888C028180800203F200126382000E5
:102D600008F8080000000000203F2020202030004C
:102D700008F8F800F8F80800203F003F003F200066
:102D800008F830C00008F808203F200007183F006E
:102D9000E01008080810E0000F10202020100F009D
:102DA00008F808080808F000203F21010101000090
:102DB000E01008080810E0000F18242438504F00D5
:102DC00008F8888888887000203F2000030C302095
:102DD00000708808080838000038202121221C00D3
:102DE000180808F8080818000000203F200000001C
:102DF00008F808000008F808001F202020201F0005
:102E00000878880000C83808000007380E01000064
:102E1000F80800F80008F800033C0700073C03002E
:102E2000081868808068180820302C03032C302094
:102E30000838C800C83808000000203F2000000003
:102E400010080808C838080020382621202018005B
:102E5000000000FE020202000000007F404040002F
:102E6000000C30C000000000000000010638C00067
:102E700000020202FE000000004040407F0000000F
:102E80000000040202020400000000000000000034
:102E90000000000000000000808080808080808032
:102EA000000202040000000000000000000000001A
:102EB00000008080808000000019242222223F2010
:102EC00008F8008080000000003F112020110E0053
:102ED0000000008080800000000E112020201100E2
:102EE000000000808088F800000E112020103F2094
:102EF0000000808080800000001F22222222130018
:102F0000008080F0888888180020203F2020000062
:102F10000000808080808000006B94949493600017
:102F200008F8008080800000203F210000203F2022
:102F300000809898000000000020203F2020000022
:102F4000000000809898000000C08080807F000012
:102F500008F8000080808000203F24022D302000EF
:102F6000000808F8000000000020203F202000009A
:102F70008080808080808000203F20003F20003FB4
:102F80008080008080800000203F210000203F20C2
:102F90000000808080800000001F202020201F0073
:102FA000808000808000000080FFA12020110E00A2
:102FB0000000008080808000000E112020A0FF8093
:102FC000808080008080800020203F212000010040
:102FD0000000808080808000003324242424190095
:102FE000008080E0808000000000001F20200000A2
:102FF0008080000000808000001F202020103F20E3
:10300000808080000080808000010E300806010072
:1030100080800080008080800F300C030C300F0017
:1030200000808000808080000020312E0E31200042
:10303000808080000080808080818E701806010072
:1030400000808080808080000021302C2221300090
:1030500000000000807C020200000000003F4040B1
:1030600000000000FF00000000000000FF00000062
:103070000002027C800000000040403F0000000091
:10308000000601010202040400000000000000002C
:103090000000000000000000010203040607080908
:1030A0000000000001020304C830000800000020F6
:1030B000380000009C1E0008003100083800002085
:1030C00098040000AC1E0008000000000000000092
:1030D00000000000000000000000000000000000F0
:1030E0000000CA410000CA410000CA4101000000BE
:1030F000100000000000000000A24A0400000000D0
:0400000508000131BD
:00000001FF
